:020000040800F2
:10000000F0B50020750200089B0C0008790A000872
:10001000990C000875070008651A00080000000028
:10002000000000000000000000000000DD010008EA
:100030005D080008000000002102000869150008A2
:100040008F0200088F0200088F0200088F0200084C
:100050008F0200088F0200088F0200088F0200083C
:100060008F0200088F0200088F0200088F0200082C
:100070008F0200088F0200088F0200088F0200081C
:100080008F0200088F0200088F0200088F0200080C
:100090008F0200088F0200088F0200088F020008FC
:1000A0008F0200088F0200088F0200088F020008EC
:1000B0008F020008CD1500088F0200088F0200088B
:1000C0008F0200088F0200088F0200088F020008CC
:1000D0008F020008F5170008891800088F02000831
:1000E0008F0200088F0200088F0200088F020008AC
:1000F0008F0200088F0200088F0200088F0200089C
:100100008F0200088F0200088F0200088F0200088B
:100110008F0200088F0200088F0200088F0200087B
:100120008F0200088F0200088F0200088F0200086B
:1001300000F002F800F042F80AA090E8000C8244B7
:100140008344AAF10107DA4501D100F037F8AFF294
:10015000090EBAE80F0013F0010F18BFFB1A43F0A5
:1001600001031847E041000000420000103A24BF9C
:1001700078C878C1FAD8520724BF30C830C144BF0C
:1001800004680C607047000000230024002500264E
:10019000103A28BF78C1FBD8520728BF30C148BFEA
:1001A0000B607047642900F0F180732900F04882E9
:1001B000002070471FB51FBD10B510BD00F08CFAB0
:1001C0001146FFF7F7FF01F0D9FC00F0AAFA03B4DB
:1001D000FFF7F2FF03BC01F046FC0000224B196858
:1001E0000868B0E8F00F80F30988BFF36F8F4FF015
:1001F000000080F311884EF00D0E704700000000E3
:1002000006480068006880F3088862B661B6BFF3EC
:100210004F8FBFF36F8F00DF00BF00BF08ED00E01E
:10022000EFF30980BFF36F8F0F4B1A6820E9F00FCF
:10023000106008B54FF0500080F31188BFF34F8F66
:10024000BFF36F8F02F084FF4FF0000080F311883E
:10025000BDE8084019680868B0E8F00F80F3098825
:10026000BFF36F8F704700BF88000020EFF3058059
:10027000704700000948804709480047FEE7FEE74D
:10028000FEE7FEE7FEE7FEE7FEE7FEE7FEE7FEE746
:1002900004480549054A064B704700007D150008D3
:1002A00031010008F0AF0020F0B50020F0B10020CF
:1002B000F0B10020704700000FB4044910B503AA44
:1002C000029800F0C1F910BC5DF814FB5400002046
:1002D0002DE9F0410E460446002020622046E168E8
:1002E000884730B3252805D0D4E901219047206AFA
:1002F000401CF2E7E168204600278847050018D037
:10030000A5F14100192802D820354FF40067324684
:10031000294620462760FFF745FF40B1012804D059
:10032000F61D26F007060836D8E7361DD6E728461C
:10033000DAE7206ABDE8F08170B50C460546012A6F
:1003400005D02878800600D5EA69002302E0012361
:1003500005E05B1C934202D2E05C0028F9D1A86959
:10036000E618C01AA861286A184428622846AFF324
:10037000008004E0D5E9012114F8010B9047B44254
:10038000F8D32846AFF3008070BD00002DE9F0419E
:100390000646002410687529314616A510D0AFF323
:1003A0000080002802DA404213A507E031688A077E
:1003B00001D512A502E0490704D511A5012401E0E9
:1003C000AFF3008000210A2206F1240709E0B0FB08
:1003D000F2FCB0FBF2F302FB1C00303078541846FC
:1003E000491C0028F3D123462A463046BDE8F04197
:1003F00000F0A2B8000000002D0000002B0000005B
:1004000020000000032A40F2308010F0030C00F0BE
:10041000158011F8013BBCF1020F624498BF11F83E
:1004200001CB00F8013B38BF11F8013BA2F10402F7
:1004300098BF00F801CB38BF00F8013B11F003036F
:1004400000F01481083AC0F0088051F8043B083AE3
:1004500051F804CBA0E80810F5E7121D5CBF51F875
:10046000043B40F8043BAFF30080D20724BF11F8EF
:10047000013B11F801CB48BF11F8012B24BF00F854
:10048000013B00F801CB48BF00F8012B704702F098
:10049000FF0343EA032242EA024200F002B84FF0AF
:1004A00000020429C0F0128010F0030C00F01B8041
:1004B000CCF1040CBCF1020F18BF00F8012BA8BF4F
:1004C00020F8022BA1EB0C0100F00DB85FEAC17C13
:1004D00024BF00F8012B00F8012B48BF00F8012BC6
:1004E00070474FF0000200B51346944696462039F7
:1004F00022BFA0E80C50A0E80C50B1F12001BFF4DD
:10050000F7AF090728BFA0E80C5048BF0CC05DF842
:1005100004EB890028BF40F8042B08BF704748BF90
:1005200020F8022B11F0804F18BF00F8012B704704
:1005300070477047704770472DE9F0470D46994660
:100540009246044600F124080168880604D5E06953
:1005500021F01001216000E00120A84201DD471BCD
:1005600000E00027A1697A1902EB0900081AA061CE
:100570002078C00602D42046AFF30080002608E0B1
:10058000D4E901211AF806009047206A401C761C25
:1005900020624E45F4DB2078C0060AD52046AFF332
:1005A000008006E0D4E9012130209047206A401CF9
:1005B0002062381EA7F10107F4DC07E0D4E901212D
:1005C00018F805009047206A401C2062281EA5F1FB
:1005D0000105F3DC2046AFF300802078000602D549
:1005E0000220BDE8F0870120FBE7000001694A1CFA
:1005F00002610878704700B58FB0CDE90131002164
:10060000059105497944CDE9031011466846FFF785
:100610005FFE0FB000BD0000E5FFFFFF10B54369AE
:1006200013B1AFF3008001E0FFF786FE012010BD9B
:10063000127800F124010A7000224A700122EDE7CD
:1006400011684FF0FF32E9E7074B70B50D467B4468
:10065000FFF7D1FF0446284600F03AF810B14FF0FA
:10066000FF3070BD204670BD1315000010B5203A54
:10067000C0F00B80B1E81850203AA0E81850B1E85B
:100680001850A0E81850BFF4F5AF5FEA027C24BF11
:10069000B1E81850A0E8185044BF18C918C0BDE808
:1006A00010405FEA827C24BF51F8043B40F8043BD1
:1006B00008BF7047D20728BF31F8023B48BF11F886
:1006C000012B28BF20F8023B48BF00F8012B7047E0
:1006D000007B00F080007047754600F029F8AE46B8
:1006E00005006946534620F00700854618B020B53E
:1006F000FFF7CEFDBDE820404FF000064FF00007A9
:100700004FF000084FF0000B21F00701AC46ACE8B9
:10071000C009ACE8C009ACE8C009ACE8C0098D4626
:1007200070470446AFF300802046FFF750FD0000FD
:10073000004870478CAF002000F028BE38B501217A
:10074000082000F0F5FA4FF48074ADF80040102056
:100750008DF803000320064D8DF8020069462846F7
:1007600000F031F92146284600F082F938BD00003A
:10077000000C0140FEE70000F0B50E460A468BB0C3
:100780000746057901460024684601F06FFA0D2EF0
:1007900011D0182E0DD1052D0BD1324639462748E0
:1007A00001F064FA2548417C842902D1C07C00F024
:1007B00057F80BB0F0BD012D20D0FD2DF9D11F4809
:1007C00032463946183001F051FA1D480021022204
:1007D00001801A491831097A41800146194800F010
:1007E00061FD164832463946253001F03FFA13497B
:1007F000FE20253108710020B21F0BE00F48324661
:100800003946323001F032FAD3E70B18401C9B789E
:1008100023449CB29042F8DB200A8DF82800074858
:100820008DF8294002220AA92E3001F01FFA03494F
:1008300032462531012001F037FABAE730010020B5
:100840003C00002000F000080348002202604260E3
:100850004721312000F0D4BE400000207047000046
:1008600030B500231C4C1D491D4A0125122820D0FB
:100870000CDC0B2819D0112816D181202070C1F86A
:100880009851C1F89C31C2F8A43121E0132817D047
:10089000142809D18F202070C1F89851C1F89C51BB
:1008A000C2F8A451C2F8AC5130BD2370C1F89831E0
:1008B000E7E783202070C1F89851C1F89C51E2E726
:1008C00087202070C1F89851C1F89C51C2F8A451FA
:1008D000C2F8AC3130BD0000480000200080224248
:1008E0000000244270B505464FF43026304600F033
:1008F00059F8042811D1094C206940F00200206108
:100900006561206940F040002061304600F04AF8FF
:10091000216941F6FD721140216170BD0020024045
:1009200008490420CA68D20701D001207047CA686C
:10093000520701D502207047C968C906FBD50320BC
:1009400070470000002002400248016941F0800128
:100950000161704700200240F0B506464FF4005791
:100960000D46384600F01EF804280CD1064C2069CC
:1009700040F0010020613580384600F013F821690D
:10098000BA1E11402161F0BD002002400348024917
:1009900041600349416070472301674500200240E0
:1009A000AB89EFCD00B50346FFF7BAFF02E0FFF7D2
:1009B000B7FF5B1E012803D0002B00D1052000BD2E
:1009C000002BF4D1FAE7F0B5CC78002204F00F0345
:1009D000E40601D58C7823430C784FF00F0C14F00B
:1009E000FF0F4FF0010E1BD005680E880EFA02F4BF
:1009F0002640A64210D196000CFA06F725EA070712
:100A000003FA06F5CE783D43282E02D0482E02D0B8
:100A100002E0446100E00461521C082AE5D305604D
:100A20000A88FF2A1CD94468002202F108060EFA3F
:100A300006F50E882E40AE420ED196000CFA06F74F
:100A4000BC4303FA06F7CE783C43282E00D145611B
:100A5000CE78482E00D10561521C082AE5D34460A7
:100A6000F0BD0246002092680A4200D00120704783
:100A70004161704701617047FEE770B5044600258B
:100A800007E0641EE4B201D2042070BD642001F0CE
:100A90002BF800F0DBFB0028F3D0284670BD0000E7
:100AA00008B50121442000F043F91C20ADF80000F6
:100AB00048208DF8030069460648FFF784FF0120AF
:100AC000ADF8000028208DF8030069460248FFF7C2
:100AD0007AFF08BD00180140000801402DE9F041EF
:100AE0002E4C2F4F2F4D012608B1667001E0607823
:100AF000A0B110212846FFF7B4FFB0B10821284665
:100B0000FFF7AFFF88B104212846FFF7AAFF60B1C5
:100B100001213846FFF7A5FF012806D010212846FD
:100B2000FFF79FFF012824D035E0322000F0C0FFFE
:100B30000020607010212846FFF793FF80B1082144
:100B40002846FFF78EFF70B104212846FFF789FF82
:100B500058B101213846FFF784FF012807D01AE079
:100B60000120BDE8F0810220FBE70320F9E7042023
:100B7000F7E708212846FFF774FF01280BD104216D
:100B80002846FFF76EFF012805D101213846FFF7FF
:100B900068FF00B966700020E3E70000480000200D
:100BA0000008014000180140144C0020FFF796FF98
:100BB00001281FD002280AD003281BD0042819D1ED
:100BC0002078000601D50B2012E0112010E02078DB
:100BD00000F08F00812806D0832806D0872806D011
:100BE0008F2807D1F1E7122002E0132000E0142043
:100BF000FFF736FE0A2002F0D1F8D6E748000020C1
:100C0000F8B501214FF4B47000F092F82026ADF849
:100C1000006010241C4F8DF8034003258DF802500E
:100C200069463846FFF7CFFE20213846FFF722FFFE
:100C3000ADF80060154E69463046FFF7C4FE20212E
:100C40003046FFF717FFC020ADF800008DF80340D5
:100C50008DF8025069463046FFF7B5FE0C4FC021B3
:100C60003846FFF705FF4FF42066ADF800608DF8B9
:100C700003408DF8025069460648FFF7A4FE31464E
:100C80003846FFF7F5FEF8BD000C014000180140A2
:100C90000014014000200140FEE7704730B50F23EB
:100CA000C27801780125F2B1144A126801F1E021FD
:100CB00002F4E062C2F5E062120AC2F10404D34019
:100CC0004278A24084781C401443220181F8002419
:100CD000007800F01F018D404009800000F1E02005
:100CE000C0F8005130BD01F01F0085404809800068
:100CF00000F1E020C0F8805130BD00000CED00E0B4
:100D00000249084302490860704700000000FA05E4
:100D10000CED00E070477047044A0029D16901D00A
:100D2000014300E08143D1617047000000100240A0
:100D3000044A0029916901D0014300E08143916197
:100D4000704700000010024030B5204A5168204B27
:100D500011F00C0103D0042901D0082901D003604F
:100D600012E05168536801F470114FF0020413F45B
:100D7000803F04EB914102D053689B0301D5154B92
:100D800000E0134B5943016051680F2303EA11112E
:100D9000114B5C5C0168E14041605468072505EA3D
:100DA00014241C5D21FA04F48460546805EAD424F8
:100DB0001B5DD940C1605268032303EA9232064B9F
:100DC0001B1F9A5CB1FBF2F1016130BD00100240C3
:100DD00000127A0000093D005C00002070B5054655
:100DE000FF20002340F231140FE0EA5C504008225B
:100DF000060602D584EA400000E04000521EC0B260
:100E000012F0FF02F4D15B1CDBB28B42EDD370BD5C
:100E100010B503F035F9044903F046F9BDE8104078
:100E2000024903F04FB800000000C84200FF7F47AE
:100E300010B503F025F9054903F036F9044903F02C
:100E400041F8BDE81040034903F0FAB900002F4310
:100E500000FF7F470000344210B51446FFF7BEFF85
:100E6000A04201D0022010BD002010BD30B4029C71
:100E700023B1012B06D030BC80207047234630BC04
:100E800000F004B8234630BC00F03EB82DE9FC4128
:100E9000984615460E46074600F0DAF8040023D1BE
:100EA0005DB1012D06D0022D01D080241CE042F658
:100EB000104004E042F60D4001E042F6064000F02A
:100EC000D3F8040010D100F0B7F804000CD142466A
:100ED0000021684600F086F8040005D100220121B7
:100EE00001A800F07FF8044600F054F94CB9BDF8B1
:100EF0000000FFF79DFF3860BDF80400FFF788FF92
:100F000030602046BDE8FC812DE9FC411D461746B6
:100F10008846064600F09CF8040032D15FB1012FEC
:100F200006D0022F01D080242BE042F2164004E0CC
:100F300042F20B4001E04FF4105000F095F804002D
:100F400008D01EE000F078F8040008D0384600F021
:100F5000CBFD01E04FF47A776D1EEDB2F2D20DB108
:100F600014B10EE004240CE000221146684600F0A3
:100F700039F805460022012101A800F033F840EAC3
:100F8000050400F007F954B9BDF80000FFF750FF61
:100F90003060BDF80400FFF73BFFC8F800002046B2
:100FA000BDE8FC8138B501210820FFF7C1FE4FF4F0
:100FB0004064ADF8004010208DF803000320084D78
:100FC0008DF8020069462846FFF7FDFC21462846B9
:100FD000FFF750FD00F0BAFD442000F023F838BDC3
:100FE000000C01407CB50D4604460021684600F027
:100FF0007BF890B9002211460DF1010000F074F861
:1010000058B90022294601A800F06EF828B99DF8C9
:10101000042002216846FFF71FFFBDF8001049BAFF
:1010200021807CBD03494000087040F001004870F9
:10103000704700004A00002010B500F09AF80348FD
:101040004078BDE8104000F0B4B800004A0000202D
:1010500010B500F08EF803480078BDE8104000F0AD
:10106000A8B800004A00002070B50446000A00F04D
:10107000A0F80546E0B200F09CF8284370BD0000DF
:1010800008B54FF48060ADF8000010208DF8030023
:1010900003208DF8020069460148FFF794FC08BD63
:1010A000000C014008B54FF40060ADF800000420CA
:1010B0008DF8030069460248FFF785FC08BD000073
:1010C000000C014008B54FF40060ADF8000010209E
:1010D0008DF8030003208DF8020069460148FFF7F0
:1010E00072FC08BD000C01402DE9F04790460E4609
:1010F0000746002400F0A2F8FFF7D4FF00256006A1
:10110000040E00F093F8052000F0EEFC4046FFF7D7
:10111000B4FC8146052000F0E7FC00F0AFF808B110
:1011200044F0010400F08AF8052000F0DDFC6D1C9D
:10113000EDB2082DE3D33C70FFF7C4FF052000F0AB
:10114000D3FC9EB100F08AF8052000F0CDFC00F041
:101150006DF8052000F0C8FC00F070F800F07EF893
:10116000052000F0C1FC4846BDE8F08700F07EF89D
:10117000EAE710B5FFF7A6FF00F070F800F056F8A8
:10118000052000F0B1FC00F071F8BDE8104005202A
:1011900000F0AABC10B500F049F800F067F805208F
:1011A00000F0A2FC00F05AF8BDE81040052000F065
:1011B0009BBC70B50546002600F040F8FFF782FFA3
:1011C000002400F03BF8052000F08EFC280602D534
:1011D00000F044F801E000F049F8052000F084FC3C
:1011E00000F024F8052000F07FFC6806641C050E62
:1011F000E4B2082CE5D300F021F8052000F074FCDF
:10120000FFF750FF052000F06FFC00F00FF80520FD
:1012100000F06AFC00F032F800B1012600F00EF890
:10122000052000F061FC304670BD00004FF4806185
:101230000148FFF71FBC0000000C01404FF4806123
:101240000148FFF715BC0000000C01404FF480611D
:101250000148FFF706BC0000000C01404FF400619C
:101260000148FFF707BC0000000C01404FF400618B
:101270000148FFF7FDBB0000000C01404FF4006186
:101280000148FFF7EEBB0000000C014010B5002341
:1012900005E030F8024B21F813405B1C9BB29342EF
:1012A000F7D310BD2DE9F05FA0F100641546884624
:1012B0008246B4F5803F50D2FFF768FBA70AC4F31B
:1012C0004806C6F50074A54200D82C46DFF890B059
:1012D0004FF0006000EB872081464FF400722049F8
:1012E000FFF7D4FF00204FF6FF7206E033183BF8FB
:1012F0001310914203D1401C80B2A042F6D3A04209
:1013000023D24846FFF7EEFA00205A4606E038F8A6
:1013100010108319401C22F8131080B2A042F6D39B
:1013200048464FF400720E4900F01CF8A54210D058
:10133000281B08EB4408A244002685B24FF4007431
:101340007F1CA542C4D82C46C2E7224641465046DF
:10135000EAE7BDE8F05FFFF7F7BABDE8F09F0000ED
:10136000A80100202DE9F04116460F46054600244D
:1013700007E037F814102846FFF7EEFA641CA4B211
:10138000AD1CB442F5D3BDE8F0810000FEB5444980
:1013900000240888020A8DF804208DF8050048888A
:1013A0000222010A8DF806103D498DF807000C391C
:1013B0003C4800F05BFC3B4E04273A46377101A9DC
:1013C000701D00F053FC364902220839B01C00F0B1
:1013D0004DFC334902220A3906F11D0000F046FC9B
:1013E0003220311F009001230022081FFFF73EFD2D
:1013F000E0B9A6F1180503202870286902F024FE40
:10140000010A6970A870EF70686902F01DFE010A98
:10141000297168712946032201F1270000F026FC9A
:101420000422E91C05F12A0000F020FC1D490E20D1
:1014300030737039022201F17D0000F017FC194968
:10144000012070727239022201F17C0000F00EFC62
:10145000134914480322891F153000F007FC104976
:1014600010480322C91E183000F000FC002170183B
:10147000491C8078C9B2204484B21929F7D3200AC4
:101480008DF8080007488DF80940022202A91B3098
:1014900000F0ECFB1F220349012000F005FCFEBD1B
:1014A0003C000020880100200CB500222648009254
:1014B0000192016841F4803101604FF4A06301683A
:1014C00001F4003101910099491C0091019911B971
:1014D00000999942F3D10168890333D50121019123
:1014E0001A490A6842F010020A600A6822F00302F0
:1014F0000A600A6842F002020A604168416041687D
:101500004160416841F480614160416821F47C118F
:101510004160416841F4E8114160016841F0807127
:10152000016001688901FCD5416821F00301416037
:10153000416841F0020141604168C1F38101022923
:10154000FAD10CBD01920CBD0010024000200240F7
:101550004FF0E0210428086903D020F0040008615E
:10156000704740F00400FAE710B502F0EBF90128EB
:1015700003D0BDE8104001F075BE10BD0F4810B596
:10158000016841F00101016041680D4A114041606C
:1015900001680C4A11400160016821F4802101605A
:1015A000416821F4FE0141604FF41F018160FFF7A3
:1015B0007BFF05494FF00060086010BD001002403D
:1015C0000000FFF8FFFFF6FE08ED00E010B50A4C42
:1015D0000121204600F04FF8012807D107490A6889
:1015E0004868521C40F100000A6048602046BDE88F
:1015F0001040012100F032B80004004040000020FB
:101600007FB50D46044601210220FFF785FBADF8AA
:101610000440ADF8005000240F4DADF80640ADF881
:1016200002406946284600F03BF801221146284650
:1016300000F02DF81D208DF80C0001218DF80D1003
:101640008DF80E408DF80F1003A8FFF727FB01213E
:10165000284600F006F87FBD00040040C94301821F
:1016600070470029018802D041F0010101E021F01A
:1016700001010180704702460020138A92890B42C3
:1016800002EA010202D0002A00D001207047002A9D
:10169000828901D00A4300E08A43828170470000BA
:1016A00030B502881B4C1C4DA0420DD0A8420BD077
:1016B000B0F1804F08D0194B984205D0184B984292
:1016C00002D0184B984203D122F070034A881A4383
:1016D000154B984206D0154B984203D022F4407324
:1016E000CA881A4302808A8882850A880285A042B5
:1016F0000AD0A84208D00E4A904205D00D4A904226
:1017000002D00D4A904201D1097A018601218182DD
:1017100030BD0000002C01400034014000040040B6
:1017200000080040000C0040001000400014004081
:101730000040014000440140004801408AB0DFF809
:1017400060A0184E4FF0FF3B00276D464FF00D088C
:101750004FF00A0900235A461946DAF8100001F042
:10176000D3FD012818D134780F492246684600F08D
:101770007DFA05F804802919A41C81F80190E1B2D2
:101780006846FEF7F9FF3780C8210748FEF787FE55
:1017900028216846FEF7A5FE0A2001F0FFFAD9E7E6
:1017A0000000002050000020A80500200D4D0E4C28
:1017B0004FF0FF37002600233A461946686901F0CA
:1017C000A3FD012809D122780849094800F04EFA02
:1017D0002680C8210548FEF762FE0A2001F0DEFAE5
:1017E000E9E7000000000020520000207006002001
:1017F0001001002038B51F4D40F22551284600F059
:101800009CF81D4CD8B1284600F024F9C1B22088BC
:10181000020417D443044FF0000204D50A290DD165
:1018200040F4004023E00D291FD0C0F30D03134DF9
:10183000401C80B2E9542080C72800D9228020882B
:10184000000411D50E48006800280DD0694601F04B
:10185000A5FF0098002807D00A494FF08050086083
:10186000BFF34F8FBFF36F8F38BD40F480402080AF
:10187000E5E700000038014050000020A8050020E6
:101880001000002004ED00E038B51E4D40F2255157
:10189000284600F052F81C4CE0B1284600F0DAF877
:1018A00061881A4AC1F30D03491CD05488B2608084
:1018B0001178422902D140F48040608080B2010456
:1018C0000BD441041CD5C0F30D01202917D140F4DD
:1018D000004060806088000411D50D480068002831
:1018E0000DD0694601F05AFF0098002807D0094939
:1018F0004FF080500860BFF34F8FBFF36F8F38BD3C
:101900000020E6E700440040500000207006002060
:101910001400002004ED00E00029818902D041F488
:10192000005101E021F400518181704702460020FE
:1019300012880A4200D00120704770B501F01F05DF
:1019400001260024C1F3421306FA05F2012B0FD041
:10195000022B0FD0838A4FEA11210088134206FA26
:1019600001F600EA060001D000B10124204670BD56
:101970008389F0E7038AEEE710B5C1F3421301F063
:101980001F040121A140012B07D0022B07D01430E6
:10199000002A026805D00A4304E00C30F8E7103052
:1019A000F6E78A43026010BD30B50446008A85B070
:1019B0000D464CF6FF710840E98801432182A08959
:1019C0004EF6F3110840A9882A8911436A89024317
:1019D0001143A181A08A4FF6FF410840A989014324
:1019E000A1826846FFF7B0F91948844201D10398F3
:1019F00000E00298A189090400EBC00101EB00108E
:101A0000296801D5490000E08900B0FBF1F06422AB
:101A1000B0FBF2F109010B096FF018056B4300EB05
:101A20008300A3891D044FF0320306D503EBC000E9
:101A3000B0FBF2F000F0070005E003EB0010B0FB94
:101A4000F2F000F00F000843208105B030BD000027
:101A5000003801408088C0F308007047C1F30801D6
:101A600081807047FEE7704710B50420FFF770FDD6
:101A70000C480D490D4A0068B0FBF1F3B0FBF1F1E1
:101A80004FF47A7041431370012050804FF0E020F2
:101A9000026942F0020202614161016941F0010103
:101AA000016110BD1C00002040420F004C000020CE
:101AB00070B5044601F046FF01280CD0094D688836
:101AC000844203D3B4FBF0F001F068F96888B4FBFA
:101AD000F0F100FB11444FF47A706043BDE87040B0
:101AE00000F002B84C00002070B54FF0E025002156
:101AF0006C69094AAB6912785043AA699A42FCD0D2
:101B000002D2A3EB020302E0A4EB02063344194421
:101B100013468142F1D370BD4C00002009490120D9
:101B2000096809B1002070470749CA69002AF9D13C
:101B3000044A896828321268491E8A42F3D1022079
:101B400070470000285F00208800002010B5FFF7D4
:101B5000B9FAFFF795FAFFF781FBBDE81040FFF7F0
:101B600065BB000004490A885206FCD5024AC1B28E
:101B7000121D118070470000003801401CB54FF461
:101B80004070FFF7BDF8FFF76FFF4FF4E131012020
:101B900000F07AF84FF41651022000F075F8FFF7C4
:101BA0002FF8FEF77DFFFEF7C9FDFFF7FBF90020D8
:101BB00000F022F8022209490948FFF767FB0949AA
:101BC0000120CDE900010202002307A1094801F02C
:101BD0008DFE01F043FA00201CBD00003C000020F7
:101BE00000F000080000002073746172745F74617B
:101BF000736B00004D27000870B504460B480C4E6F
:101C0000002150F8240006EB84054200286900F00A
:101C100035F806480021103050F82420A86800F05C
:101C20002DF801203119087670BD00002C43000802
:101C30006C00002010B50B4B0B4C002253F82030E9
:101C4000114604EB800005E0046934F8114004B14A
:101C5000521C491C8B42F7D864204243B2FBF3F07C
:101C6000C0B210BD2C4300086C00002003E011F846
:101C7000013B00F8013B521EF9D2704701E000F829
:101C8000011B521EFBD2704700280BD0032809D23B
:101C9000DFE800F008020500084600F0CBBD08466A
:101CA00000F01ABE704700002DE9F04790460D463F
:101CB00006460024DFF848A0DFF848901BE0012E1C
:101CC0000AD1295D57465046FFF7C8FE40213846E5
:101CD000FFF72CFE0128F9D1022E0AD1295D4F46CB
:101CE0004846FFF7BBFE40213846FFF71FFE01289C
:101CF000F9D1641CE4B24445E1D3BDE8F0870000AB
:101D000000380140004400402DE9F041184E0F46D4
:101D10000446F5683068001D00F030FE38B93068C0
:101D200090F82C1001208840316981433161601C9A
:101D300007D137B13168BDE8F0410E48091D00F008
:101D400055BE30682C44AC424460316805D2306CDA
:101D5000BDE8F041091D00F031BEF06B091D00F037
:101D60002DFEB06A844200D2B462BDE8F08100006A
:101D700088000020505F00202DE9F041054600F06A
:101D800041FE2D4EB068401CB06030682B4F10B142
:101D9000706930B32BE03560B068012827D100248A
:101DA00004EB840007EB800000F0FAFD641C202C9B
:101DB000F6D3234800F0F4FD2148143000F0F0FD84
:101DC0001F48283000F0ECFD1D483C3000F0E8FDD5
:101DD0001B48503000F0E4FD1948F06314303064C3
:101DE00005E03068E96AC06A884200D83560706AE8
:101DF0000121401C7062A864E86A32698140114385
:101E0000316100EB800007EB8000291D00F0EEFD42
:101E100000F034FE706900280CD03068E96AC06AAE
:101E2000884207D207494FF080500860BFF34F8FB8
:101E3000BFF36F8FBDE8F08188000020805C002038
:101E4000005F002004ED00E010B500F0DBFD0E4C5B
:101E50002068A0B90D4800F0A3FD0C48143000F034
:101E60009FFD0A48E0601430206100221021052007
:101E700001F00EFA206010B105A100F05BFFBDE893
:101E8000104000F0FBBD0000CC000020645F00208B
:101E9000546D72510000000070B5124E124D1CE0DE
:101EA00001F04EF9306820B1002401F07BFEA4B9A6
:101EB00001E00124F9E700F0A5FDF068C468201DE9
:101EC00000F05CFDA868401EA8606868401E68605D
:101ED00000F0D4FD204600F052F868680028DFD1F9
:101EE00070BD00003C5F00208800002030B4026C10
:101EF0000B46002A0BD0C1681144C1604468A1425E
:101F000001D30168C16030BC1846FEF77BBA30BC13
:101F100070472DE9F041856B174604460026026C98
:101F200082B1C7B1E068FEF76DFAE168206C091A6A
:101F3000E1602268914202D26168081AE060022FD3
:101F400016D017E02068A8B9606801F083FD064646
:101F5000002060600EE0A068FEF754FA216CA068D3
:101F60000844A0606168884204D32068A06001E052
:101F700005B16D1E6D1CA5633046BDE8F08110B53E
:101F80000446006B00F0ACFD2046BDE8104000F0B8
:101F9000A7BD00000A4900200A69012A00D90120D2
:101FA0000A68D26A0AB100207047064A1268012AFC
:101FB000F9D80028F7D1886AC968401A704700002C
:101FC00088000020805C002010484FF4A0414207A8
:101FD00006D0C01D0D4920F00700411AC1F5A041EF
:101FE0000B4A00230144C2E900030839103A21F0EA
:101FF000070111604B600B600B1AC0E9001393607E
:102000004FF000405360D060704700008C5F0020AC
:10201000F0000020144D4FF08056144F144C40F641
:102020008C48FFF739FF2868012804D93E60BFF3C8
:102030004F8FBFF36F8FFFF7ADFF0228F1D301F091
:102040007FF8A06AE168884204D2424609A10EA046
:10205000FEF732F9FFF79EFF022801D300F0B0FD32
:1020600001F0A0FDDDE70000805C002004ED00E051
:10207000880000202E2E5C4672656552544F535CDA
:102080007461736B732E63004572726F723A2573BD
:102090002C25640D0A0000002DE9F047DDE90984D4
:1020A0000E461746824691009946089DA522206B50
:1020B000FEF7EDF96FF00301206B01EB8701084497
:1020C00020F00707780705D040F22B3219A11EA097
:1020D000FEF7F2F800202218315C82F83410315CEF
:1020E00011B1401C1428F6D3002684F84760202D37
:1020F00000D31F25E562C4E91456201D00F05BFCE7
:1021000004F1180000F057FC2461C5F1200064625E
:10211000A061A665E66584F860604A465146384687
:1021200000F002FB2060B8F1000F01D0C8F80040B9
:10213000BDE8F0872E2E5C4672656552544F535CA5
:102140007461736B732E63004572726F723A2573FC
:102150002C25640D0A00000030B5114900E011463D
:102160000A688242FBD34B685C18844203D1406802
:1021700018444860084643681C18944209D1084C2A
:10218000103C2468A24209D052681A4442600A688E
:1021900012680260814200D0086030BD0460F9E737
:1021A000F000002070B5002441600B4D00619142A9
:1021B00006D8D11A8269914206D2011D286907E02A
:1021C0009A4203D2994201D3012403E0011DE86839
:1021D00000F0F4FB204670BDCC00002010B5044692
:1021E00000F010FCA06B20B1002400F047FC20465A
:1021F00010BD0124F9E700002DE9F34100980F46D6
:102200000026846C2CB940F6CE1216A11AA0FEF757
:1022100053F8A06BE16B884205D340F6CF1211A1B1
:1022200015A0FEF749F8A06BE16B88420CD294F937
:1022300045503A4669462046FFF76BFE0646681C45
:1022400005D06D1C84F845503046BDE8FC81606ABD
:102250000028F9D004F1240001F056FC0028F3D046
:102260000126F1E72E2E5C4672656552544F535C91
:1022700071756575652E63004572726F723A2573CC
:102280002C25640D0A000000F8B5054614480E46DA
:10229000C068C068C468201D00F070FBE0690128B8
:1022A00017D1A0692B46411932462046FFF77AFF25
:1022B00078B100200346014600902A46204601F0EE
:1022C00057FD30B907494FF4027201F11800FDF7CC
:1022D000F3FF616A01B02046BDE8F0400847000006
:1022E000CC000020D43C000870B586B02F4E53E0DF
:1022F0000198002806DADDE90301029A9047019867
:10230000002849DB039C606910B1201D00F036FBFA
:1023100005A800F0A7F8054601980A283CD2DFE896
:1023200000F00505053B273805053B270298A16904
:10233000034601442A462046FFF734FF00282BD0ED
:10234000616A20468847E069012825D10020009075
:102350000298A169002342181946204601F008FDA1
:10236000D0B940F2213212A117A0FDF7A5FF13E06A
:102370000298A06128B94FF44E720DA112A0FDF78A
:102380009BFFA0692B4641191A462046FFF70AFF1A
:1023900002E0204600F0A4FB00231A4601A93068A1
:1023A00000F0B2FF0028A3D106B070BDCC00002021
:1023B0002E2E5C4672656552544F535C74696D6590
:1023C00072732E63000000004572726F723A2573BB
:1023D0002C25640D0A000000F8B50D46064600F0F5
:1023E000AFFE684600F03EF80446009810B101F0D8
:1023F000D9FBF8BD1148ADB101690968D9B1002513
:10240000311B2A46006800F0A7FC01F0CBFB002836
:10241000EFD10B494FF080500860BFF34F8FBFF3EF
:102420006F8FF8BDA642EBD801F0BCFB21463046C9
:10243000FFF72AFFF8BD0125E2E70000CC000020ED
:1024400004ED00E00648C16B096829B1C16BC96899
:10245000C9684968816270474FF0FF31FAE70000B0
:102460008800002070B5054601F07AFA064E044651
:10247000B068844203D200F009F8012000E0002097
:1024800028602046B46070BDCC000020F8B5184E1E
:1024900026E0C068C4680568201D00F06FFA616A14
:1024A00020468847E06901281AD1A0692844A8423B
:1024B00006D924616060211DF06800F07FFA0FE00A
:1024C00000200346014600902A46204601F050FCB9
:1024D00030B9084940F2923201F11800FDF7ECFEE4
:1024E000F06801680029D4D13169C6E90310F8BD4C
:1024F000CC000020D43C000808484068401C04D0B0
:10250000F42207A111A0FDF7D7FE502080F3118817
:10251000BFF34F8FBFF36F8FFEE70000F80000207E
:102520002E2E5C4672656552544F535C706F727408
:1025300061626C655C525644535C41524D5F434D41
:10254000335C706F72742E63000000004572726F0E
:10255000723A25732C25640D0A000000084CE068CF
:10256000016839B1002139B10020FFF735FFFFF7CD
:10257000BBFEF4E70121F6E7C0680068F5E700005C
:10258000CC0000202DE9F041044600F03BFA94F91C
:10259000455004F1240610E0A06C20B10021204633
:1025A000FFF72AFE04E0606A48B1304601F0ACFA59
:1025B00008B100F08FFC6D1E6DB2002DECDC4FF009
:1025C000FF3684F8456000F059FA00F01BFA94F9E0
:1025D000445004F1100709E0206948B1384601F081
:1025E00093FA08B100F076FC6D1E6DB2002DF3DC9D
:1025F00084F84460BDE8F04100F040BA2DE9F041B4
:102600000546002600F09CFD324F386808B9FFF7F8
:10261000DBFCF86805424FD1002D4DD00835680726
:102620000BD005F00700C0F108000544680704D08E
:10263000BF2229A132A0FDF73FFE002D3CD07868D3
:10264000854239D8234910310846046801E0214603
:1026500004466068A84202D220680028F7D1386892
:10266000B846844228D00E68206808606068083642
:10267000401B10280ED96719780704D0EC2216A148
:102680001FA0FDF719FE6068401B78603846656042
:10269000FFF762FD6168D8F804004246401AC8F8A6
:1026A0000400D8F80830984200D29060D8F80C00A6
:1026B00001430020C4E9000101F074FA700705D05D
:1026C0004FF4967204A10EA0FDF7F6FD3046BDE86A
:1026D000F0810000E00000202E2E5C4672656552FD
:1026E000544F535C706F727461626C655C4D656DC4
:1026F0004D616E675C686561705F342E6300000039
:102700004572726F723A25732C25640D0A00000021
:102710000449086818B10868426D521C426508688F
:10272000704700008800002010B5031F4FF0807430
:102730001C601B1F21F001011960191F024B0B6067
:10274000143940380A6010BDF92400087CB500F047
:1027500059F903220021012000F09AFD234C0322A5
:1027600000212061012000F093FD606120480123D9
:1027700000901A4642F210711EA001F085FAA06185
:1027800048B101F0EDF80246002003460090012117
:10279000A06901F0EDFA154903200831CDE90001E7
:1027A0004FF4807500232A4616A1194801F09EF8BF
:1027B0000E490220091DCDE9000100232A4615A17A
:1027C000174801F093F8094904200C31CDE90001C4
:1027D00000232A4613A1164801F088F8206800F06B
:1027E00013FBBDE87C4000F049B900000000002068
:1027F000390700084175746F52656C6F61645469E4
:102800006D65720055415254325F7461736B000004
:10281000AD17000855415254315F7461736B00006D
:102820003D1700084B45595F7461736B0000000051
:10283000A90B000830B5054687B0012144F2040019
:10284000FEF776FA4FF40070ADF8100003208DF813
:10285000120018201E4C8DF8130004A92046FEF724
:10286000B2F82115ADF8101004208DF8130004A95A
:102870002046FEF7A8F825208DF8140007208DF8D3
:10288000150000248DF8164001208DF8170005A8CA
:10289000FEF704FAADF80440ADF80640ADF8084084
:1028A000ADF80C400C200B4CADF80A0000956946C1
:1028B0002046FFF779F8012240F225512046FFF724
:1028C0005BF801212046FFF727F807B030BD000074
:1028D0000008014000380140F0B50646012187B0EC
:1028E0004804FEF719FA01210420FEF721FA042515
:1028F000ADF8105003208DF8120018201D4F8DF8F0
:10290000130004A93846FEF75EF80824ADF810401D
:102910008DF8135004A93846FEF755F826208DF897
:1029200014008DF8154000248DF8164001208DF814
:10293000170005A8FEF7B2F9ADF80440ADF806405F
:10294000ADF80840ADF80C400C200B4CADF80A0077
:10295000009669462046FFF727F8012240F22551EC
:102960002046FFF709F801212046FEF7D5FF07B002
:10297000F0BD00000008014000440040D0E90132F1
:1029800001699A60D0E901235A604A68824201D104
:1029900082684A60002202610868401E0860704731
:1029A00000F108014FF0FF32C0E90112C16001617E
:1029B00000210160704700210161704730B50C684B
:1029C000621C02D000F1080202E0026904E01A462B
:1029D00053681D68A542FAD953684B6099608A60B4
:1029E000516008610168491C016030BD42684A605D
:1029F00093688B6093685960916008610168491C15
:102A000001607047502080F31188BFF34F8FBFF3F0
:102A10006F8F09494868401C486001280AD107485F
:102A2000006810F0FF0F05D04FF4BD7204A10FA095
:102A3000FDF742BC70470000F800002004ED00E004
:102A40002E2E5C4672656552544F535C706F7274E3
:102A500061626C655C525644535C41524D5F434D1C
:102A6000335C706F72742E63000000004572726FE9
:102A7000723A25732C25640D0A00000010B5084C2D
:102A8000606828B940F2811206A111A0FDF714FC7C
:102A90006068401E606001D180F3118810BD0000A5
:102AA000F80000202E2E5C4672656552544F535C30
:102AB000706F727461626C655C525644535C415233
:102AC0004D5F434D335C706F72742E6300000000E5
:102AD0004572726F723A25732C25640D0A0000004E
:102AE00070B500282AD0164DA0F108046068E96886
:102AF000084205D14FF4A07212A11CA0FDF7DCFB27
:102B0000206828B140F241120EA118A0FDF7D4FBB5
:102B10006068E968084211D02268002A0ED1884313
:102B2000606000F00DFB60686968084468602046DA
:102B3000FFF712FBBDE8704001F034B870BD000033
:102B4000E00000202E2E5C4672656552544F535CA7
:102B5000706F727461626C655C4D656D4D616E671E
:102B60005C686561705F342E630000004572726FAF
:102B7000723A25732C25640D0A00000010B50E482A
:102B80004FF47A730D4A00686FF07F44B0FBF3F1A5
:102B90009160B4FBF1F1D160B0FBF0F12D24B4FBF6
:102BA000F1F11161B0FBF3F14FF0E020491E4161FA
:102BB0000721016110BD00001C000020F80000206A
:102BC0002DE9F041374E0446F068844200D90446AE
:102BD0004FF0E027386920F001003861B969B26828
:102BE000601E02FB00153069854200D92D1A72B6AD
:102BF000BFF34F8FBFF36F8FFEF790FF48B37D6138
:102C00004FF00008C7F81880386940F001003861BB
:102C10002046FEF780F824B1BFF34F8F30BFBFF3DB
:102C20006F8F2046FEF776F8386920F00101396190
:102C300062B6C00319D5B869B168281A081A326992
:102C4000401E904201D3884200D9481E7861641E1C
:102C500015E0B8697861386940F001003861B06802
:102C6000401E786162B6BDE8F081B068B96944433E
:102C7000611AB1FBF0F4621C4243501A7861C7F844
:102C80001880FFF7BFFE386940F001003861204628
:102C900000F030FAB068401E7861BDE8F041FFF7FF
:102CA000EDBE0000F800002010B5FDF7DFFA104C73
:102CB00010280CD300F1E02090F8F003217888422E
:102CC00005D24FF42A720BA115A0FDF7F5FA1848AA
:102CD0000068616900F4E060884207D9BDE81040EF
:102CE0004FF42E7203A10EA0FDF7E6BA10BD00004E
:102CF000F80000202E2E5C4672656552544F535CDE
:102D0000706F727461626C655C525644535C4152E0
:102D10004D5F434D335C706F72742E630000000092
:102D20004572726F723A25732C25640D0A000000FB
:102D30000CED00E010B5074B002253F832401CB1F7
:102D4000521C082AF9D310BD43F8321003EBC2011C
:102D5000486010BD405C002070B515460E46044624
:102D6000FFF750FE94F944100020491C01D184F86B
:102D7000440094F94510491C01D184F84500FFF73F
:102D80007DFEA06B28B92A46314604F1240000F0EC
:102D9000D1F82046BDE87040FFF7F4BB10B5040041
:102DA00012D00E49096B29B140F2CF420CA111A0FB
:102DB000FDF782FA00F0C4F900212046FEF7A4FFD7
:102DC00000F0F0FE002807D10E494FF08050086057
:102DD000BFF34F8FBFF36F8F10BD0000880000203E
:102DE0002E2E5C4672656552544F535C7461736B52
:102DF000732E63004572726F723A25732C25640D31
:102E00000A00000004ED00E070B50446FFF7FAFD8B
:102E1000234D04B92C68201DFFF7B0FD58B9E06AB6
:102E2000204A00EB800152F8211021B90121814094
:102E3000286988432861A06A18B104F11800FFF7D7
:102E40009DFD686A401C68622868844207D1211D84
:102E50001548FFF7CBFD6868401C686007E0A8686C
:102E6000401EA8602046FFF78AF8FFF7EBFAFFF74D
:102E700005FE6869002812D0286884420FD1286BAB
:102E800028B140F2654209A10DA0FDF715FA1049DD
:102E90004FF080500860BFF34F8FBFF36F8F70BD4E
:102EA00088000020805C00203C5F00202E2E5C46C5
:102EB00072656552544F535C7461736B732E63007B
:102EC0004572726F723A25732C25640D0A0000005A
:102ED00004ED00E001490120C8617047880000202E
:102EE00070B50D46040005D140F6063207A10CA0CE
:102EF000FDF7E2F90E48016820461831FFF75EFD44
:102F00002846BDE870400121FEF7FEBE2E2E5C462D
:102F100072656552544F535C7461736B732E63001A
:102F20004572726F723A25732C25640D0A000000F9
:102F30008800002070B514460E46050005D140F605
:102F4000313209A10DA0FDF7B7F9104801682846F4
:102F50001831FFF74BFD0CB14FF0FF3621463046DC
:102F6000BDE87040FEF7D0BE2E2E5C4672656552FD
:102F7000544F535C7461736B732E63004572726FB0
:102F8000723A25732C25640D0A0000008800002089
:102F900070B5040039D01D4DE06A2968C96A8842BD
:102FA00033D2A069002804DB2868C06AC0F1200081
:102FB000A061E06A164E00EB8000616906EB8000BC
:102FC00081421FD1201DFFF7D9FC012150B9E06AD1
:102FD00000EB800256F8222022B92A6901FA00F09B
:102FE00082432A612868C06AE0622A6981401143ED
:102FF000296100EB800006EB8000211DBDE87040D8
:10300000FFF7F4BC2868C06AE06270BD8800002049
:10301000805C002010B5040005D140F6C13205A146
:1030200009A0FDF749F90C48016A2160C068606099
:1030300010BD00002E2E5C4672656552544F535CE5
:103040007461736B732E63004572726F723A2573ED
:103050002C25640D0A000000880000201CB51848CB
:103060000024CDE900402346822216A1174800F033
:103070003DFC012803D100F041FE01280AD0401C8C
:103080001DD102B040F28472BDE8104010A115A01D
:10309000FDF712B9502080F31188BFF34F8FBFF3B3
:1030A0006F8F07484FF0FF312C3881620121416159
:1030B000C460FDF7C9FBBDE81C4000F097B81CBD1B
:1030C000B400002049444C450000000015200008D1
:1030D0002E2E5C4672656552544F535C7461736B5F
:1030E000732E63004572726F723A25732C25640D3E
:1030F0000A00000070B5084D0446E868A96A20443B
:10310000884205D940F6711204A109A0FDF7D4F850
:10311000E8682044E86070BD880000202E2E5C46E0
:1031200072656552544F535C7461736B732E630008
:103130004572726F723A25732C25640D0A000000E7
:103140000248016B491C01637047000088000020A1
:1031500070B51A4C206B10B10120E06170BD0020E9
:10316000E061174908684968A063626B904204D91E
:103170002168821A8B6D1A448A6560632069114E3A
:10318000B0FA80F0C0F11F0000EB800556F8250072
:1031900028B940F6F6220CA110A0FDF78DF806EB39
:1031A000850000F10802416849684160914201D1FF
:1031B00049684160C868206070BD00008800002038
:1031C00040000020805C00202E2E5C467265655217
:1031D000544F535C7461736B732E63004572726F4E
:1031E000723A25732C25640D0A0000001CB51A499B
:1031F00008780190FF20087008788DF800009DF88D
:103200000000164C00F0500020700720606107E0BD
:103210006069401E60619DF8000040008DF800006C
:103220009DF800000006F3D4207D000200F4E06069
:103230006061019808700A48016841F470010160FA
:10324000016841F070410160FFF798FC0020606068
:10325000FCF7D6FF00201CBD00E400E0F8000020D1
:1032600020ED00E010B5502080F31188BFF34F8FA0
:10327000BFF36F8F00F07AFB18B104494FF0805014
:103280000860002080F3118810BD000004ED00E00C
:103290002DE9F04117460E46050005D14FF4C472E2
:1032A00010A115A0FDF708F8BEB105FB06F05430DB
:1032B000FFF7A4F904000ED004F154007EB12060A1
:1032C000C4E90F562046012100F0E0F884F8507060
:1032D00000212046A164BDE8F0810020E7E72460DA
:1032E000EEE700002E2E5C4672656552544F535C2B
:1032F00071756575652E63004572726F723A25733C
:103300002C25640D0A0000002DE9FF4F83B09B4679
:103310008A4604004FF0000605D140F2DC4251A17C
:1033200055A0FCF7C9FFBAF1000F07D1206C28B1F6
:1033300040F2DD424BA150A0FCF7BEFF00F002FBC3
:1033400038B9059828B14FF49C6246A14AA0FCF711
:10335000B3FF4FF000094FF08057DFF82C81FFF7E3
:1033600051FBA56B45B351462046E668FEF7BEFD0E
:10337000BBF1000F13D0E660606A50B104F1240085
:1033800000F0C2FB28B1C8F80070BFF34F8FBFF345
:103390006F8FFFF773FB012007B0BDE8F08F6D1E44
:1033A000A563206810B9FFF7B3F9606020690028B1
:1033B000EFD004F11000E3E7059808B11EB106E074
:1033C000FFF75CFB27E06846FFF724FE0126FFF7C6
:1033D00055FBFFF7B5FEFFF715FB94F94400401CC1
:1033E00001D184F8449094F94500401C01D184F83F
:1033F0004590FFF743FB05A9684600F033FA002823
:1034000020460AD0FFF7BEF800F0CCFB2046FEF7BE
:10341000E5FE0028A3D00020BEE7FEF7DFFED8B10E
:10342000206830B9FFF7EEFA6068FFF7B1FDFFF7EB
:1034300025FB04F124000599FFF752FD2046FFF714
:10344000A1F800F0AFFB002889D1C8F80070BFF3E5
:103450004F8FBFF36F8F82E72046FFF793F800F09E
:10346000A1FB7CE72E2E5C4672656552544F535C7F
:1034700071756575652E63004572726F723A2573BA
:103480002C25640D0A00000004ED00E070B50D4627
:10349000040005D140F21B121CA121A0FCF70CFF77
:1034A000FFF7B0FAD4E90F20216802FB0011616038
:1034B0000021A1632168A1600A46D4E90F01401EE2
:1034C00000FB0121E16021464FF0FF3001F8440F7D
:1034D000487004F110004DB1FFF762FA04F12400C6
:1034E000FFF75EFAFFF7CAFA012070BD21690029D3
:1034F000F8D000F009FB0028F4D00D494FF08050BF
:103500000860BFF34F8FBFF36F8FEBE72E2E5C4643
:1035100072656552544F535C71756575652E630015
:103520004572726F723A25732C25640D0A000000F3
:1035300004ED00E02DE9FF4F83B099468B4604006F
:103540004FF0000605D140F2D92252A156A0FCF757
:10355000B3FEBBF1000F07D1206C28B140F2DA2294
:103560004CA151A0FCF7A8FEB9F1020F08D1E06B05
:10357000012805D040F2DB2246A14BA0FCF79CFEBF
:1035800000F0E0F938B9059828B140F2DE2241A1F7
:1035900045A0FCF791FE4FF0000A4FF08057DFF88E
:1035A0001881FFF72FFAA06BE16B884206D3B9F1BF
:1035B000020F03D0059800B316B325E04A465946DA
:1035C0002046FEF7A6FCA16C21B149462046FEF735
:1035D00013FE05E0616A19B104F1240000F094FAC9
:1035E00028B1C8F80070BFF34F8FBFF36F8FFFF79C
:1035F00045FA012007B0BDE8F08FFFF73FFA21E060
:103600006846FFF707FD0126FFF738FAFFF798FD38
:10361000FFF7F8F994F94400401C01D184F844A064
:1036200094F94500401C01D184F845A0FFF726FA23
:1036300005A9684600F016F930B12046FEF7A2FF52
:1036400000F0B0FA0020D5E7FFF7DCF9A06BE16BE2
:10365000884201D1012500E00025FFF70FFA95B15E
:1036600004F110000599FFF73BFC2046FEF78AFFA6
:1036700000F098FA002894D1C8F80070BFF34F8F7B
:10368000BFF36F8F8DE72046FEF77CFF00F08AFACC
:1036900087E700002E2E5C4672656552544F535CDE
:1036A00071756575652E63004572726F723A257388
:1036B0002C25640D0A00000004ED00E02DE9F04720
:1036C000984615468946040005D140F29F322AA14A
:1036D0002EA0FCF7F1FDB9F1000F07D1206C28B145
:1036E0004FF4687224A129A0FCF7E6FDB8F1020F9F
:1036F00008D1E06B012805D040F2A1321EA123A021
:10370000FCF7DAFDFFF7D0FA5020EFF3118780F3D2
:103710001188BFF34F8FBFF36F8FA06BE16B8842AF
:1037200007D3B8F1020F04D0002087F31188BDE859
:10373000F08794F94560424649462046FEF7E9FB8A
:10374000701C04D0761C84F845600120EDE7A06C65
:10375000012620B141462046FEF74EFD06E0606A94
:103760000028F2D004F1240000F0CEF90028ECD0BB
:10377000002DEAD02E60E8E72E2E5C467265655279
:10378000544F535C71756575652E63004572726F99
:10379000723A25732C25640D0A0000002DE9F041D2
:1037A0000D46040005D140F23C4225A129A0FCF7BA
:1037B00083FD206C28B14FF4886221A125A0FCF77D
:1037C0007BFD206838B9606828B140F245421CA1F1
:1037D00020A0FCF771FDFFF767FA5020EFF3118688
:1037E00080F31188BFF34F8FBFF36F8FA16BE06B36
:1037F00088421FD994F94500491CA163411C04D09B
:10380000401C84F84500012015E0A06C012720B180
:1038100000212046FEF7F0FC06E0606A0028F2D0A6
:1038200004F1240000F070F90028ECD0002DEAD05B
:103830002F60E8E7002086F31188BDE8F0810000E2
:103840002E2E5C4672656552544F535C71756575DA
:10385000652E63004572726F723A25732C25640DD4
:103860000A00000070B50D46040005D140F6CB32C9
:1038700014A119A0FCF720FD2DB940F6CC3211A1FE
:1038800015A0FCF719FDFFF7BDF8174AD0682968A5
:103890004B1C0FD02368126A934202D062688242A6
:1038A0000AD96268801A884206D2081A286020461F
:1038B000FFF7B0FB002400E00124FFF7DFF820460B
:1038C00070BD00002E2E5C4672656552544F535CED
:1038D0007461736B732E63004572726F723A257355
:1038E0002C25640D0A000000880000202DE9FF5FF0
:1038F0008346DDE90E87994616468A469000FEF714
:103900007DFE05001AD06420FEF778FE040012D078
:1039100025630021CDE90241CDE900874B463246BF
:1039200051465846FEF7B8FB2046FEF725FA01201F
:1039300004B0BDE8F09F2846FFF7D2F84FF0FF3003
:10394000F6E700000548416919B1006B18B1002085
:103950007047012070470220704700008800002057
:103960000148C06870470000880000202DE9F04140
:103970002D4F0026386B40B1B869401CB861F8691A
:1039800000B101263046BDE8F081FD686D1CFD6088
:1039900011D1F86B006828B140F6D91223A128A0F4
:1039A000FCF78AFCF86B396CF9633864386A401CA0
:1039B0003862FEF747FDB86ADFF89480854209D384
:1039C000F86B006880B1F86BC068C46860688542B5
:1039D0000DD2B8623868C06A00EB800158F8210047
:1039E0000128CCD90126CAE74FF0FF30F1E7201DAE
:1039F000FEF7C4FFA06A18B104F11800FEF7BEFF7D
:103A0000E06A01213A6981401143396100EB80018C
:103A100008EB8100211DFEF7E9FFE06A3968C96AF9
:103A20008842CDD30126CBE7880000202E2E5C46AD
:103A300072656552544F535C7461736B732E6300EF
:103A40004572726F723A25732C25640D0A000000CE
:103A5000805C002070B504004FF000063CD01F4D84
:103A60002868844205D040F6C7621DA121A0FCF75A
:103A700023FC606D28B940F6C96219A11DA0FCF7AE
:103A80001BFC606D401E6065226DE16A914223D08F
:103A900010BB201DFEF772FF1A49012250B9E06ADF
:103AA00000EB800351F8233023B92B6902FA00F0B0
:103AB00083432B61206DE062C0F12000A061E06AC9
:103AC0002B6982401A432A6100EB800001EB8000E1
:103AD000211DFEF78BFF0126304670BD88000020B7
:103AE0002E2E5C4672656552544F535C7461736B45
:103AF000732E63004572726F723A25732C25640D24
:103B00000A000000805C00202DE9F041C068C46814
:103B10002CB940F6613217A11BA0FCF7CDFB04F1D4
:103B200018000746FEF72AFF1B4D286B012658B1E7
:103B300039461A48FEF75AFFE06A2968C96A88427E
:103B400012D90124EE6110E0201DFEF717FFE06A94
:103B50002A6906FA00F111432961114900EB80003E
:103B600001EB8000211DE5E70024FEF76BFC2046F9
:103B7000BDE8F0812E2E5C4672656552544F535C51
:103B80007461736B732E63004572726F723A2573A2
:103B90002C25640D0A00000088000020285F00200A
:103BA000805C00202DE9F0472B4D00242746286B30
:103BB00028B94FF4FD6229A12DA0FCF77DFBFEF78B
:103BC00021FF286B401E2863286BE8BBA8682C499E
:103BD0000126C8B3A1F52A798846D8F80010E9B1C2
:103BE000D8F80C00C46804F11800FEF7C7FE201DC9
:103BF000FEF7C4FEE06A2A6906FA00F11143296162
:103C000000EB800109EB8100211DFEF7EFFEE06A69
:103C10002968C96A8842E0D3EE61DEE70CB1FEF79D
:103C200011FCAC693CB1FFF7A1FE00B1EE61641E6E
:103C3000F9D10020A861E86930B11249012738079D
:103C40000860BFF34F8F00E001E0BFF36F8FFEF716
:103C500015FF3846BDE8F087880000202E2E5C4610
:103C600072656552544F535C7461736B732E6300BD
:103C70004572726F723A25732C25640D0A0000009C
:103C8000285F002004ED00E02DE9F0470746994643
:103C900016460D462C20DDF820A0FEF7AFFC0400F0
:103CA00014D0B8464F46D1462DB94FF4C67209A17B
:103CB0000EA0FCF701FBFEF7C7F804F11801C4F8E9
:103CC000008081E8E002201DFEF775FE2046BDE879
:103CD000F08700002E2E5C4672656552544F535C8F
:103CE00074696D6572732E63000000004572726F17
:103CF000723A25732C25640D0A0000001CB50024BF
:103D0000FEF7A2F80C48006868B10B491F20091D96
:103D1000CDE9000100234FF4827208A10948FFF7A2
:103D2000E5FD040005D140F2331207A10CA0FCF719
:103D3000C3FA20461CBD0000CC000020546D722048
:103D4000537663005D2500082E2E5C467265655231
:103D5000544F535C74696D6572732E6300000000EC
:103D60004572726F723A25732C25640D0A000000AB
:103D70002DE9FF47DDF830A0994690460D46060034
:103D80004FF0000705D14FF4D37212A117A0FCF732
:103D900093FA1A4C206880B1CDE900580296062D9E
:103DA00011DAFFF7CFFD02284FF0000309D00022FF
:103DB00069462068FFF7BEFB074604B03846BDE8F9
:103DC000F0875246F4E700234A466946FFF776FC3F
:103DD000F2E700002E2E5C4672656552544F535C2C
:103DE00074696D6572732E63000000004572726F16
:103DF000723A25732C25640D0A000000CC000020C7
:103E000090EA010F48BF81F0004100F12082421A80
:103E10003CBF801A89184FEAD0524FF07F4C1CEA01
:103E2000410FA2EBD15318BF9CEA026F00F03B8018
:103E30004FF0004C4CEA00204CEA012121FA03FC2F
:103E400010EB0C0C1ED202F1FF325FEA1C2040EB9B
:103E5000C25038BF70471CF07F0F4FEA400C18BFAC
:103E6000BCF17F4F38BF7047C3F12003994008BFB2
:103E700020F00100BCF17F4F38BF7047A0F1C04077
:103E800000F0D9B94FEA3C00000A40EBC25028BF0D
:103E90001CF0FF0F4FEA400CE6D018BFBCF17F4F7B
:103EA00038BF7047EAE79CEA026F05D010EA5C0F62
:103EB00008BF00F00040704710B500F076F900BF71
:103EC00064FBBE3E4FF47F0C1CEAD0121EBF1CEAFE
:103ED000D11392EA0C0F93EA0C0F00F0858090EA60
:103EE000010F48BF42F4807240F4000C41F400001E
:103EF0002CF07F4120F07F4000B58142A2EB03020D
:103F00000FF2081CACEB504EC0F100009EF800E030
:103F10004FEA4E0E00FB0EFC38BF49004FEA2C1C46
:103F200002F5FA020CFB0EF34FEACE1E4FEA112CFB
:103F30004FEAC1210EEB635E42EB22420EFB0CFC0A
:103F40004FEA1C5300FB03114FEA112C4FEA0131D9
:103F50000EFB0CFC4FEADC4C00FB0C11C14228BFED
:103F600009184CEB03335DF804EB10EB410143EB14
:103F7000C250B2F57C0F38BF704729D512F0F00F50
:103F80001CBF00F1C04000F00040704700818283F8
:103F90008485868788898B8C8D8E8F919293959658
:103FA00097999A9C9D9FA0A2A3A5A7A8AAACAEB0E2
:103FB000B2B3B5B7B9BCBEC0C2C5C7C9CCCED1D4E7
:103FC000D7D9DCDFE2E6E9ECF0F3F7FAFE00000017
:103FD0004FEA400C0CF1807CBCF17E4F28BF70474B
:103FE000B0F1C04000F027B990EA010F0CEAD113FC
:103FF00048BF42F48072624538BF634507D213F46C
:104000007F0F16D080EA010000F00040704710B525
:1040100000F0CBF8097EFC3E00F005B880EA010014
:1040200000F00040704780EA010000F0004000F01E
:1040300002B912F47F0F04BF0248704780EA010002
:1040400000F0F9B80000C07F41000B0ED3F19E02D2
:1040500008D950F400034FEA032323FA02F048BFC3
:104060004042704710B500F0A0F800BF499224808C
:10407000002070476FF0004282EA20007047000085
:10408000B0FA80F310FA03F2C3F19D030AD0D90508
:1040900001EB1220530638BF704700F1010008BF42
:1040A00020F00100704700004FF47F0C1CEAD01292
:1040B0001EBF1CEAD11392EA0C0F93EA0C0F00F01A
:1040C000478090EA010F48BF42F480724FF0004CE5
:1040D0004CEA00204CEA012102EB0302A0FB011391
:1040E000A2F50002002918BF43F001035B0028BFBE
:1040F0004FEA330342EB22425FEA132C4CEBC250EF
:104100002EBFBCEB436FB2F57C0F70474FEA036CD8
:10411000BCF1004F08BF20F00100B2F57C0F38BFA2
:1041200070470BD582F0FF0212F5803FC8BF704781
:1041300000F1C040D8BF00F00040704700F5000C0F
:104140005FEA4C0C48BF7047B0F1C04000F073B854
:1041500090EA010F0CEAD11348BF42F48072624525
:1041600038BF634504D280EA010000F00040704788
:1041700010B500F01AF800BF8900013E00F007B842
:1041800000F009B85FEA410C5FEA1C6C08D080EAD5
:10419000010000F050B85FEA400C5FEA1C6CF6D1F9
:1041A0004FF00040A0F5800070470EF1020E2EF097
:1041B000030E5EF8044B244204D44FEA4102B2F1EC
:1041C0007F4F11D84FEA4003B3F17F4F0CD80ED187
:1041D0004FEAD07CB2F17F4F0CEB4C0C0CF1020C8F
:1041E00008BF4CEBD17C04E04FF0080C01E04FEA33
:1041F000D17C0CEB4C0324FA03F404F00704B4F173
:10420000040C06D20EEB840CBDE810404CF0010CFF
:104210006047DFE80CF0070802024FF00040A0F50D
:10422000800010BD0846420018BFD2F1807288BFDE
:1042300000F0004010BDFF2141EAD050C00570479A
:1042400090EA010F48BF81F000413FF5E0AD421A0E
:1042500004D882F00042A0EB020011444FEAD05291
:104260004FF07F4C1CEA410FA2EBD15318BF9CEAE0
:10427000026F4AD04FF0004C4CEA00204CEA01217A
:1042800021FA03FCB0EB0C0C0FD412F0FE0F36D069
:104290005FEA4C001DD5001240EBC25038BF70479A
:1042A0001CF03F0F18BF70470BE0A2F101025FEA5C
:1042B0001C2040EBC25038BF70471CF07F0F18BF66
:1042C0007047C3F12003994014BF401E20F0010045
:1042D000704780084FEA122308BF7047B0FA80FC8D
:1042E000A2EB0C02CCF1280C60FA0CF093EA122F2E
:1042F00004BF00EBC25070474FEAC3707047130A07
:104300005FEADC1008BF7047F6E79CEA026F04D052
:1043100010EA5C0F08BF0020704710B5FFF745FF9B
:1043200040DFF63E81F00040704700008002000050
:104330000078000020000000200000000050000075
:1043400000000F006443000800000020100100007E
:104350006C0100087444000810010020E0B4000063
:1043600088010008000000000000000000000000BC
:10437000000000000000000000000000000000003D
:1043800000A24A0400000000000000000102030433
:1043900006070809EB900D0A001D0A00000F000037
:1043A000000000000000000000000000000100000C
:1043B00000000000000000000000000002040608E9
:1043C00000000000010203040102030406070809BB
:1043D000F91B0008351C0008400700200000006899
:1043E0004057002000000F6800000000000000009F
:1043F00000000000000000000000000000000000BD
:1044000000000000000000000000000000000000AC
:10441000000000000000000000000000000000009C
:10442000000000000000000000000000000000008C
:10443000000000000000000000000000000000007C
:10444000000000000000000000000000000000006C
:10445000000000000000000000000000000000005C
:10446000AAAAAAAA000000000000000000000000A4
:044470000000000048
:040000050800027578
:00000001FF
