:020000040800F2
:1000000070B0002075020008CD0A00081F0A000821
:10001000CB0A000825080008DD10000800000000D9
:10002000000000000000000000000000DD010008EA
:100030007909000800000000210200083D0D0008B9
:100040008F0200088F0200088F0200088F0200084C
:100050008F0200088F0200088F0200088F0200083C
:100060008F0200088F0200088F0200088F0200082C
:100070008F0200088F0200088F0200088F0200081C
:100080008F0200088F0200088F0200088F0200080C
:100090008F0200088F0200088F0200088F020008FC
:1000A0008F0200088F0200088F0200088F020008EC
:1000B0008F020008A10D00088F0200088F020008BF
:1000C0008F0200088F0200088F0200088F020008CC
:1000D0008F020008110F00088F0200088F0200082D
:1000E0008F0200088F0200088F0200088F020008AC
:1000F0008F0200088F0200088F0200088F0200089C
:100100008F0200088F0200088F0200088F0200088B
:100110008F0200088F0200088F0200088F0200087B
:100120008F0200088F0200088F0200088F0200086B
:1001300000F002F800F042F80AA090E8000C8244B7
:100140008344AAF10107DA4501D100F037F8AFF294
:10015000090EBAE80F0013F0010F18BFFB1A43F0A5
:10016000010318472032000040320000103A24BF3B
:1001700078C878C1FAD8520724BF30C830C144BF0C
:1001800004680C607047000000230024002500264E
:10019000103A28BF78C1FBD8520728BF30C148BFEA
:1001A0000B607047642900F00581732900F07B82A1
:1001B000002070471FB51FBD10B510BD00F0E7FA55
:1001C0001146FFF7F7FF00F0D3FF00F005FB03B483
:1001D000FFF7F2FF03BC00F082FF0000224B19681A
:1001E0000868B0E8F00F80F30988BFF36F8F4FF015
:1001F000000080F311884EF00D0E704700000000E3
:1002000006480068006880F3088862B661B6BFF3EC
:100210004F8FBFF36F8F00DF00BF00BF08ED00E01E
:10022000EFF30980BFF36F8F0F4B1A6820E9F00FCF
:10023000106008B54FF0500080F31188BFF34F8F66
:10024000BFF36F8F02F03AFA4FF0000080F311888D
:10025000BDE8084019680868B0E8F00F80F3098825
:10026000BFF36F8F704700BF6C000020EFF3058075
:10027000704700000948804709480047FEE7FEE74D
:10028000FEE7FEE7FEE7FEE7FEE7FEE7FEE7FEE746
:1002900004480549054A064B70470000510D000807
:1002A0003101000870AA002070B0002070AC00205E
:1002B00070AC0020704700000FB4044910B503AAC9
:1002C000029800F0F5F910BC5DF814FB380000202E
:1002D0000FB41CB5074B06AA7B44694600900598ED
:1002E00000F0B7F90020694600F0C6F91CBC5DF8C3
:1002F00014FB00009D0300002DE9F0410E4604466A
:10030000002020622046E168884730B3252805D0C8
:10031000D4E901219047206A401CF2E7E1682046B9
:1003200000278847050018D0A5F14100192802D8F8
:1003300020354FF400673246294620462760FFF7F4
:1003400031FF40B1012804D0F61D26F0070608361B
:10035000D8E7361DD6E72846DAE7206ABDE8F081FF
:1003600070B50C460546012A05D02878800600D5D0
:10037000EA69002302E0012305E05B1C934202D2FC
:10038000E05C0028F9D1A869E618C01AA861286ABB
:10039000184428622846AFF3008004E0D5E9012123
:1003A00014F8010B9047B442F8D32846AFF300800D
:1003B00070BD00002DE9F041064600241068752943
:1003C000314616A510D0AFF30080002802DA404273
:1003D00013A507E031688A0701D512A502E0490795
:1003E00004D511A5012401E0AFF3008000210A2209
:1003F00006F1240709E0B0FBF2FCB0FBF2F302FBCC
:100400001C00303078541846491C0028F3D123468C
:100410002A463046BDE8F04100F0BCB800000000BC
:100420002D0000002B00000020000000032A40F2F5
:10043000308010F0030C00F0158011F8013BBCF186
:10044000020F624498BF11F801CB00F8013B38BF9E
:1004500011F8013BA2F1040298BF00F801CB38BFAC
:1004600000F8013B11F0030300F03481083AC0F0BA
:10047000088051F8043B083A51F804CBA0E8081072
:10048000F5E7121D5CBF51F8043B40F8043BAFF3A5
:100490000080D20724BF11F8013B11F801CB48BFFF
:1004A00011F8012B24BF00F8013B00F801CB48BF35
:1004B00000F8012B704702F0FF0343EA032242EAEF
:1004C000024200F002B84FF000020429C0F012808E
:1004D00010F0030C00F03281CCF1040CBCF1020FDF
:1004E00018BF00F8012BA8BF20F8022BA1EB0C01CC
:1004F00000F024B95FEAC17C24BF00F8012B00F8AA
:10050000012B48BF00F8012B704700004FF0013C61
:1005100050F8042B51F8043B9A4221D1A2EB0C0372
:10052000934313EACC1317D150F8042B51F8043B32
:100530009A4215D1A2EB0C03934313EACC130BD1CF
:1005400050F8042B51F8043B9A4209D1A2EB0C035A
:10055000934313EACC13DBD04FF00000704700BF89
:10056000D01A01BAB1FA81F101F0180122FA01F0B2
:10057000CB40C1F12001DBB2C0B2C01A2CFA01F3AA
:10058000D11A914311EAC311E6D170477047704701
:10059000704770472DE9F0470D469946924604464C
:1005A00000F124080168880604D5E06921F01001F3
:1005B000216000E00120A84201DD471B00E0002788
:1005C000A1697A1902EB0900081AA0612078C00617
:1005D00002D42046AFF30080002608E0D4E90121D0
:1005E0001AF806009047206A401C761C20624E458F
:1005F000F4DB2078C0060AD52046AFF3008006E081
:10060000D4E9012130209047206A401C2062381E26
:10061000A7F10107F4DC07E0D4E9012118F805008F
:100620009047206A401C2062281EA5F10105F3DCDA
:100630002046AFF300802078000602D50220BDE8F6
:10064000F0870120FBE7000001694A1C026108787D
:10065000704700B58FB0CDE9013100210591054902
:100660007944CDE9031011466846FFF745FE0FB007
:1006700000BD0000E5FFFFFF0A6802F8010B0A60F9
:10068000704710B5436913B1AFF3008001E0FFF785
:1006900067FE012010BD127800F124010A700022CB
:1006A0004A700122EDE711684FF0FF32E9E70000E0
:1006B000074B70B50D467B44FFF7CBFF0446284639
:1006C00000F061F810B14FF0FF3070BD204670BDF2
:1006D0009F0A000010B5203AC0F00B80B1E8185016
:1006E000203AA0E81850B1E81850A0E81850BFF41C
:1006F000F5AF5FEA027C24BFB1E81850A0E81850BB
:1007000044BF18C918C0BDE810405FEA827C24BF0E
:1007100051F8043B40F8043B08BF7047D20728BF9C
:1007200031F8023B48BF11F8012B28BF20F8023BEB
:1007300048BF00F8012B70474FF0000200B5134688
:1007400094469646203922BFA0E80C50A0E80C50F1
:10075000B1F12001BFF4F7AF090728BFA0E80C50A2
:1007600048BF0CC05DF804EB890028BF40F8042B9B
:1007700008BF704748BF20F8022B11F0804F18BF08
:1007800000F8012B7047007B00F080007047754631
:1007900000F028F8AE4605006946534620F00700F1
:1007A000854618B020B5FFF773FDBDE820404FF037
:1007B00000064FF000074FF000084FF0000B21F04B
:1007C0000701AC46ACE8C009ACE8C009ACE8C00918
:1007D000ACE8C0098D4670470446AFF30080204660
:1007E000FFF7F5FC004870470CAA002038B501213E
:1007F000082000F0EDF94FF48074ADF800401020AF
:100800008DF803000320064D8DF802006946284646
:1008100000F0B3F82146284600F0FDF838BD00008E
:10082000000C0140FEE7000070B50546FF240EA154
:10083000FFF76CFE78B10EA12846FFF767FE60B1A6
:100840000DA12846FFF762FE48B10DA12846FFF72B
:100850005DFE30B106E0012404E0022402E003243E
:1008600000E00424204670BD4C4544314F4E00004A
:100870004C4544314F464600424545504F4E0000DE
:10088000424545504F464600034800220260426000
:100890004721312000F09EBA28000020DFF898B0F0
:1008A000264FDFF89C90274E4FF0010800250023CB
:1008B0005A1E1946DBF80C0001F0DCFF0128F6D1C6
:1008C00034780020611C00F037FD82461E4A1FA1CB
:1008D000FFF7FEFC50460AF80450214600F0E6F807
:1008E0005046FFF7A1FF0446FF2818D0514618A034
:1008F000FFF7E2FC012C06D0022C07D0032C08D015
:10090000042C0FD108E0C7F894510BE0C7F894818C
:1009100008E0C9F8A08105E0C9F8A05102E00FA0E5
:10092000FFF7CAFC3580C8210748FFF7CCFD5146C8
:10093000002000F0F5FCBAE7000000200000234290
:100940000080214234000020F400002025730000C4
:10095000C3FCC1EECEAA3A25730D0A00CEDED0A7A5
:10096000B5C4C3FCC1EEA3ACC7EBD6D8D0C2CAE4B1
:10097000C8EB21210D0A00007047F0B5CC780022A9
:1009800004F00F03E40601D58C7823430C784FF074
:100990000F0C14F0FF0F4FF0010E1BD005680E88EE
:1009A0000EFA02F42640A64210D196000CFA06F781
:1009B00025EA070703FA06F5CE783D43282E02D034
:1009C000482E02D002E0446100E00461521C082A73
:1009D000E5D305600A88FF2A1CD94468002202F189
:1009E00008060EFA06F50E882E40AE420ED196008D
:1009F0000CFA06F7BC4303FA06F7CE783C43282EE0
:100A000000D14561CE78482E00D10561521C082ADC
:100A1000E5D34460F0BD4161704701617047FEE776
:100A200008B50121442000F0D3F81C20ADF80000E7
:100A300048208DF8030069460648FFF79EFF012015
:100A4000ADF8000028208DF8030069460248FFF742
:100A500094FF08BD001801400008014038B501218D
:100A6000482000F0B5F82024ADF8004010208DF8A3
:100A7000030003200B4D8DF8020069462846FFF75E
:100A80007CFF20212846FFF7C8FFADF80040064C48
:100A900069462046FFF771FF20212046FFF7BDFF82
:100AA00038BD0000000C01400018014010B50022C4
:100AB00008E0835CA3F161041A2C01D2203B83542B
:100AC000521CD2B28A42F4D310BDFEE77047000038
:100AD00030B50F23C27801780125F2B1144A1268AB
:100AE00001F1E02102F4E062C2F5E062120AC2F113
:100AF0000404D3404278A24084781C40144322016D
:100B000081F80024007800F01F018D40400980002A
:100B100000F1E020C0F8005130BD01F01F00854019
:100B20004809800000F1E020C0F8805130BD00008D
:100B30000CED00E0024908430249086070470000DC
:100B40000000FA050CED00E010B50121082000F0CE
:100B50003FF80121102000F03BF80121202000F097
:100B600037F80121402000F033F80121802000F007
:100B70002FF80121BDE81040080200F029B810B597
:100B80000021082000F024F80021102000F020F8B7
:100B90000021202000F01CF80021402000F018F86F
:100BA0000021802000F014F8BDE8104000214FF42F
:100BB000807000F00DB80000044A0029D16901D00E
:100BC000014300E08143D161704700000010024002
:100BD000044A0029916901D0014300E081439161F9
:100BE000704700000010024030B5204A5168204B89
:100BF00011F00C0103D0042901D0082901D00360B1
:100C000012E05168536801F470114FF0020413F4BC
:100C1000803F04EB914102D053689B0301D5154BF3
:100C200000E0134B5943016051680F2303EA11118F
:100C3000114B5C5C0168E14041605468072505EA9E
:100C400014241C5D21FA04F48460546805EAD42459
:100C50001B5DD940C1605268032303EA9232064B00
:100C60001B1F9A5CB1FBF2F1016130BD0010024024
:100C700000127A0000093D00400000200CB500225F
:100C8000264800920192016841F4803101604FF4DE
:100C9000A063016801F4003101910099491C0091A1
:100CA000019911B900999942F3D10168890333D5AB
:100CB000012101911A490A6842F010020A600A688B
:100CC00022F003020A600A6842F002020A604168E8
:100CD000416041684160416841F480614160416820
:100CE00021F47C114160416841F4E81141600168E0
:100CF00041F08071016001688901FCD5416821F0F3
:100D000003014160416841F0020141604168C1F363
:100D100081010229FAD10CBD01920CBD00100240E4
:100D2000002002404FF0E0210428086903D020F0A1
:100D300004000861704740F00400FAE710B502F0C3
:100D4000B7F8012803D0BDE8104001F041BD10BD47
:100D50000F4810B5016841F00101016041680D4A7A
:100D60001140416001680C4A11400160016821F4A2
:100D700080210160416821F4FE0141604FF41F01B0
:100D80008160FFF77BFF05494FF00060086010BDF0
:100D9000001002400000FFF8FFFFF6FE08ED00E043
:100DA00010B50A4C0121204600F04FF8012807D168
:100DB00007490A684868521C40F100000A60486010
:100DC0002046BDE81040012100F032B80004004088
:100DD000280000207FB50D46044601210220FFF7C0
:100DE000EBFEADF80440ADF8005000240F4DADF817
:100DF0000640ADF802406946284600F03BF8012263
:100E00001146284600F02DF81D208DF80C00012118
:100E10008DF80D108DF80E408DF80F1003A8FFF718
:100E200057FE0121284600F006F87FBD000400406F
:100E3000C943018270470029018802D041F00101B5
:100E400001E021F001010180704702460020138A71
:100E500092890B4202EA010202D0002A00D001204E
:100E60007047002A828901D00A4300E08A438281C8
:100E70007047000030B502881B4C1C4DA0420DD0BD
:100E8000A8420BD0B0F1804F08D0194B984205D042
:100E9000184B984202D0184B984203D122F07003AD
:100EA0004A881A43154B984206D0154B984203D0F6
:100EB00022F44073CA881A4302808A8882850A888D
:100EC0000285A0420AD0A84208D00E4A904205D01E
:100ED0000D4A904202D00D4A904201D1097A018612
:100EE0000121818230BD0000002C0140003401400E
:100EF0000004004000080040000C004000100040CA
:100F000000140040004001400044014000480140FE
:100F100038B51F4D40F22551284600F04DF81D4CC4
:100F2000D8B1284600F0D6F8C1B22088020417D400
:100F300043044FF0000204D50A290DD140F40040CB
:100F400023E00D291FD0C0F30D03134D401C80B2C8
:100F5000E9542080C72800D922802088000411D5B8
:100F60000E48006800280DD0694601F0CDFE0098BB
:100F7000002807D00A494FF080500860BFF34F8F18
:100F8000BFF36F8F38BD40F480402080E5E700005C
:100F90000038014034000020F40000200C00002044
:100FA00004ED00E00029818902D041F4005101E004
:100FB00021F400518181704770B501F01F050126B1
:100FC0000024C1F3421306FA05F2012B0FD0022BC5
:100FD0000FD0838A4FEA11210088134206FA01F6E6
:100FE00000EA060001D000B10124204670BD8389CB
:100FF000F0E7038AEEE710B5C1F3421301F01F04D6
:101000000121A140012B07D0022B07D01430002A68
:10101000026805D00A4304E00C30F8E71030F6E728
:101020008A43026010BD000030B50446008A85B0D6
:101030000D464CF6FF710840E98801432182A089E2
:101040004EF6F3110840A9882A8911436A890243A0
:101050001143A181A08A4FF6FF410840A9890143AD
:10106000A1826846FFF7C0FD1948844201D1039868
:1010700000E00298A189090400EBC00101EB001017
:10108000296801D5490000E08900B0FBF1F0642235
:10109000B0FBF2F109010B096FF018056B4300EB8F
:1010A0008300A3891D044FF0320306D503EBC00073
:1010B000B0FBF2F000F0070005E003EB0010B0FB1E
:1010C000F2F000F00F000843208105B030BD0000B1
:1010D000003801408088C0F308007047FEE7704781
:1010E00010B50420FFF71EFE0C480D490D4A00689C
:1010F000B0FBF1F3B0FBF1F14FF47A7041431370A0
:10110000012050804FF0E020026942F002020261AB
:101110004161016941F00101016110BD1000002031
:1011200040420F003000002009490120096809B140
:10113000002070470749CA69002AF9D1044A896822
:1011400028321268491E8A42F3D1022070470000FB
:10115000A85900206C00002004490A885206FCD5DA
:10116000024AC1B2121D11807047000000380140D0
:101170001CB54FF44070FFF7DDFCFFF7B1FF4FF4F3
:10118000E13000F05FFEFFF769FCFFF749FCFFF775
:101190002DFB002000F044F806490120CDE90001B4
:1011A0000202002304A1074801F056FE01F00CFAE8
:1011B00000201CBD0000002073746172745F7461B4
:1011C000736B0000A91D000870B5134A13181B7E2D
:1011D00093B1124B53F820308B421AD90F4B02EBCC
:1011E0008002083B53F820301069B1FBF3F130F86E
:1011F00011400020034608E011688847012070BDB7
:1012000015690E18401C25F81630A042F8DB0020A6
:1012100070BD022070BD0000500000207C3300082B
:1012200070B504460B480C4E002150F8240006EB24
:1012300084054200286900F08FF80648002110302C
:1012400050F82420A86800F087F8012031190876AA
:1012500070BD00006C330008500000202DE9F04103
:101260001F4E0546002470190F46007E10B93168E4
:10127000284688474FF0FF327FB31A4B53F82510AA
:10128000B7FBF1F0B7FBF1FC01FB1C7101B1401C95
:101290001449083951F82510491E1ED406EB85065D
:1012A000376937F811C0BCF1000F05D00024844223
:1012B00011D1002284B207E0641CF8E7376901EB22
:1012C000020C521C27F81C408242F7D353F8250029
:1012D0004843BDE8F081491EE3D51046F9E7000018
:1012E000500000207433000810B50B4B0B4C00224B
:1012F00053F82030114604EB800005E0046934F80F
:10130000114004B1521C491C8B42F7D8642042435F
:10131000B2FBF3F0C0B210BD6C33000850000020E7
:10132000002906D0034A02EB80029268891AFFF76F
:101330004BBF70475000002010B50446FFF78EFFEA
:10134000411C05D0034901EB84018968084410BDA4
:10135000002010BD5000002001E000F8011B521ECB
:10136000FBD270472DE9F041184E0F460446F56850
:101370003068001D00F0B8FD38B9306890F82C10C6
:1013800001208840316981433161601C07D137B148
:101390003168BDE8F0410E48091D00F0DDBD306840
:1013A0002C44AC424460316805D2306CBDE8F04159
:1013B000091D00F0B9BDF06B091D00F0B5FDB06A64
:1013C000844200D2B462BDE8F08100006C000020CD
:1013D000D05900202DE9F041054600F0C9FD2D4E01
:1013E000B068401CB06030682B4F10B1706930B3EA
:1013F0002BE03560B068012827D1002404EB84007D
:1014000007EB800000F082FD641C202CF6D32348FB
:1014100000F07CFD2148143000F078FD1F48283092
:1014200000F074FD1D483C3000F070FD1B4850304A
:1014300000F06CFD1948F0631430306405E030684A
:10144000E96AC06A884200D83560706A0121401C90
:101450007062A864E86A326981401143316100EB2F
:10146000800007EB8000291D00F076FD00F0BCFD38
:10147000706900280CD03068E96AC06A884207D2D7
:1014800007494FF080500860BFF34F8FBFF36F8F55
:10149000BDE8F0816C00002000570020805900203A
:1014A00004ED00E010B500F063FD0E4C2068A0B91B
:1014B0000D4800F02BFD0C48143000F027FD0A48C1
:1014C000E0601430206100221021052001F096F91F
:1014D000206010B105A100F0E3FEBDE8104000F06F
:1014E00083BD0000B0000020E4590020546D72510B
:1014F0000000000070B5124E124D1CE001F0D6F84D
:10150000306820B1002401F003FEA4B901E00124F9
:10151000F9E700F02DFDF068C468201D00F0E4FC40
:10152000A868401EA8606868401E686000F05CFD06
:10153000204600F052F868680028DFD170BD000036
:10154000BC5900206C00002030B4026C0B46002A0D
:101550000BD0C1681144C1604468A14201D3016845
:10156000C16030BC1846FEF761BF30BC70472DE942
:10157000F041856B174604460026026C82B1C7B164
:10158000E068FEF753FFE168206C091AE160226809
:10159000914202D26168081AE060022F16D017E06B
:1015A0002068A8B9606801F00BFD06460020606065
:1015B0000EE0A068FEF73AFF216CA0680844A06026
:1015C0006168884204D32068A06001E005B16D1E07
:1015D0006D1CA5633046BDE8F08110B50446006B74
:1015E00000F034FD2046BDE8104000F02FBD0000A3
:1015F0000A4900200A69012A00D901200A68D26A32
:101600000AB100207047064A1268012AF9D800285A
:10161000F7D1886AC968401A704700006C00002042
:101620000057002010484FF4A041420706D0C01DCB
:101630000D4920F00700411AC1F5A0410B4A0023D3
:101640000144C2E900030839103A21F00701116092
:101650004B600B600B1AC0E9001393604FF0004021
:101660005360D060704700000C5A0020D400002066
:10167000144D4FF08056144F144C40F68C48FFF731
:1016800039FF2868012804D93E60BFF34F8FBFF3AC
:101690006F8FFFF7ADFF0228F1D301F007F8A06AC2
:1016A000E168884204D2424609A10EA0FEF704FE7A
:1016B000FFF79EFF022801D300F038FD01F028FD5E
:1016C000DDE700000057002004ED00E06C00002082
:1016D0002E2E5C4672656552544F535C7461736B79
:1016E000732E63004572726F723A25732C25640D58
:1016F0000A0000002DE9F047DDE909840E4617468F
:10170000824691009946089DA522206BFEF7D3FEE4
:101710006FF00301206B01EB8701084420F00707FD
:10172000780705D040F22B3219A11EA0FEF7C4FDA8
:1017300000202218315C82F83410315C11B1401C59
:101740001428F6D3002684F84760202D00D31F25E7
:10175000E562C4E91456201D00F0E3FB04F1180013
:1017600000F0DFFB2461C5F120006462A061A66582
:10177000E66584F860604A465146384600F002FB50
:101780002060B8F1000F01D0C8F80040BDE8F08734
:101790002E2E5C4672656552544F535C7461736BB8
:1017A000732E63004572726F723A25732C25640D97
:1017B0000A00000030B5114900E011460A68824273
:1017C000FBD34B685C18844203D1406818444860DE
:1017D000084643681C18944209D1084C103C246800
:1017E000A24209D052681A4442600A681268026034
:1017F000814200D0086030BD0460F9E7D4000020C9
:1018000070B5002441600B4D0061914206D8D11A99
:101810008269914206D2011D286907E09A4203D2EB
:10182000994201D3012403E0011DE86800F07CFB2C
:10183000204670BDB000002010B5044600F098FBB3
:10184000A06B20B1002400F0CFFB204610BD012486
:10185000F9E700002DE9F34100980F460026846C5B
:101860002CB940F6CE1216A11AA0FEF725FDA06BEA
:10187000E16B884205D340F6CF1211A115A0FEF707
:101880001BFDA06BE16B88420CD294F945503A469F
:1018900069462046FFF76BFE0646681C05D06D1CA6
:1018A00084F845503046BDE8FC81606A0028F9D0D4
:1018B00004F1240001F0DEFB0028F3D00126F1E75B
:1018C0002E2E5C4672656552544F535C717565757A
:1018D000652E63004572726F723A25732C25640D74
:1018E0000A000000F8B5054614480E46C068C068F6
:1018F000C468201D00F0F8FAE069012817D1A0693A
:101900002B46411932462046FFF77AFF78B1002076
:101910000346014600902A46204601F0DFFC30B91C
:1019200007494FF4027201F11800FEF7C5FC616A25
:1019300001B02046BDE8F04008470000B00000209C
:101940004032000870B586B02F4E53E00198002851
:1019500006DADDE90301029A90470198002849DB85
:10196000039C606910B1201D00F0BEFA05A800F0CC
:10197000A7F8054601980A283CD2DFE800F00505E3
:10198000053B273805053B270298A169034601441A
:101990002A462046FFF734FF00282BD0616A2046F4
:1019A0008847E069012825D1002000900298A169AC
:1019B000002342181946204601F090FCD0B940F2AD
:1019C000213212A117A0FEF777FC13E00298A06164
:1019D00028B94FF44E720DA112A0FEF76DFCA0695C
:1019E0002B4641191A462046FFF70AFF02E020461F
:1019F00000F02CFB00231A4601A9306800F03AFFE2
:101A00000028A3D106B070BDB00000202E2E5C4689
:101A100072656552544F535C74696D6572732E63C1
:101A2000000000004572726F723A25732C25640D18
:101A30000A000000F8B50D46064600F037FE68467D
:101A400000F03EF80446009810B101F061FBF8BDCB
:101A50001148ADB101690968D9B10025311B2A4689
:101A6000006800F02FFC01F053FB0028EFD10B4978
:101A70004FF080500860BFF34F8FBFF36F8FF8BDFA
:101A8000A642EBD801F044FB21463046FFF72AFF7F
:101A9000F8BD0125E2E70000B000002004ED00E001
:101AA0000648C16B096829B1C16BC968C968496832
:101AB000816270474FF0FF31FAE700006C000020B0
:101AC00070B5054601F002FA064E0446B06884423D
:101AD00003D200F009F8012000E000202860204631
:101AE000B46070BDB0000020F8B5184E26E0C068A4
:101AF000C4680568201D00F0F7F9616A2046884730
:101B0000E06901281AD1A0692844A84206D92461B5
:101B10006060211DF06800F007FA0FE00020034626
:101B2000014600902A46204601F0D8FB30B908490A
:101B300040F2923201F11800FEF7BEFBF068016836
:101B40000029D4D13169C6E90310F8BDB0000020E6
:101B50004032000808484068401C04D0F42207A125
:101B600011A0FEF7A9FB502080F31188BFF34F8F1F
:101B7000BFF36F8FFEE70000DC0000202E2E5C46D6
:101B800072656552544F535C706F727461626C651C
:101B90005C525644535C41524D5F434D335C706F11
:101BA00072742E63000000004572726F723A2573E2
:101BB0002C25640D0A000000084CE068016839B16A
:101BC000002139B10020FFF735FFFFF7BBFEF4E736
:101BD0000121F6E7C0680068F5E70000B0000020CA
:101BE0002DE9F041044600F0C3F994F9455004F1A1
:101BF000240610E0A06C20B100212046FFF72AFE49
:101C000004E0606A48B1304601F034FA08B100F0EF
:101C100017FC6D1E6DB2002DECDC4FF0FF3684F822
:101C2000456000F0E1F900F0A3F994F9445004F1A3
:101C3000100709E0206948B1384601F01BFA08B1E5
:101C400000F0FEFB6D1E6DB2002DF3DC84F84460E5
:101C5000BDE8F04100F0C8B92DE9F0410546002685
:101C600000F024FD324F386808B9FFF7DBFCF86854
:101C700005424FD1002D4DD0083568070BD005F037
:101C80000700C0F108000544680704D0BF2229A15D
:101C900032A0FEF711FB002D3CD07868854239D880
:101CA000234910310846046801E021460446606873
:101CB000A84202D220680028F7D13868B84684428A
:101CC00028D00E682068086060680836401B10281D
:101CD0000ED96719780704D0EC2216A11FA0FEF7D1
:101CE000EBFA6068401B786038466560FFF762FD7C
:101CF0006168D8F804004246401AC8F80400D8F8D1
:101D00000830984200D29060D8F80C0001430020BF
:101D1000C4E9000101F0FCF9700705D04FF4967298
:101D200004A10EA0FEF7C8FA3046BDE8F08100001D
:101D3000C40000202E2E5C4672656552544F535CE1
:101D4000706F727461626C655C4D656D4D616E673C
:101D50005C686561705F342E630000004572726FCD
:101D6000723A25732C25640D0A00000004490868A6
:101D700018B10868426D521C42650868704700003F
:101D80006C00002010B5031F4FF080741C601B1FF7
:101D900021F001011960191F024B0B601439403802
:101DA0000A6010BD551B00087CB500F0E1F8032265
:101DB0000021012000F022FD0F4C0023211DE060D6
:101DC0000220C501CDE900012A460CA10E4801F010
:101DD00043F804F108010320CDE9000100232A465D
:101DE0000AA10E4801F038F8206800F0C3FABDE8F7
:101DF0007C4000F0F9B80000000000207461736BB3
:101E0000315F7461736B0000211E00086B6579708F
:101E1000726F636573735F7461736B009D08000874
:101E2000074C4FF4FA75D4F8940130B10021C4F88E
:101E30009411284600F068FAF5E70121F7E7000061
:101E40000080214230B5054687B0012144F20400EC
:101E5000FEF7BEFE4FF40070ADF8100003208DF8C1
:101E6000120018201E4C8DF8130004A92046FEF71E
:101E700084FD2115ADF8101004208DF8130004A97D
:101E80002046FEF77AFD25208DF8140007208DF8F6
:101E9000150000248DF8164001208DF8170005A8C4
:101EA000FEF716FEADF80440ADF80640ADF8084068
:101EB000ADF80C400C200B4CADF80A0000956946BB
:101EC0002046FFF7B1F8012240F225512046FFF7E6
:101ED00092F801212046FFF765F807B030BD0000F9
:101EE0000008014000380140D0E9013201699A60E0
:101EF000D0E901235A604A68824201D182684A606F
:101F0000002202610868401E0860704700F1080165
:101F10004FF0FF32C0E90112C16001610021016090
:101F2000704700210161704730B50C68621C02D017
:101F300000F1080202E0026904E01A4653681D68D5
:101F4000A542FAD953684B6099608A605160086174
:101F50000168491C016030BD42684A6093688B602B
:101F600093685960916008610168491C016070477D
:101F7000502080F31188BFF34F8FBFF36F8F094953
:101F80004868401C486001280AD10748006810F0E2
:101F9000FF0F05D04FF4BD7204A10FA0FEF78CB95E
:101FA00070470000DC00002004ED00E02E2E5C46AF
:101FB00072656552544F535C706F727461626C65E8
:101FC0005C525644535C41524D5F434D335C706FDD
:101FD00072742E63000000004572726F723A2573AE
:101FE0002C25640D0A00000010B5084C606828B963
:101FF00040F2811206A111A0FEF75EF96068401E52
:10200000606001D180F3118810BD0000DC00002069
:102010002E2E5C4672656552544F535C706F72741D
:1020200061626C655C525644535C41524D5F434D56
:10203000335C706F72742E63000000004572726F23
:10204000723A25732C25640D0A00000070B5002833
:102050002AD0164DA0F108046068E968084205D14D
:102060004FF4A07212A11CA0FEF726F9206828B137
:1020700040F241120EA118A0FEF71EF96068E9684F
:10208000084211D02268002A0ED18843606000F017
:102090000DFB60686968084468602046FFF78AFBAA
:1020A000BDE8704001F034B870BD0000C4000020ED
:1020B0002E2E5C4672656552544F535C706F72747D
:1020C00061626C655C4D656D4D616E675C686561F4
:1020D000705F342E630000004572726F723A257390
:1020E0002C25640D0A00000010B50E484FF47A73D9
:1020F0000D4A00686FF07F44B0FBF3F19160B4FBD0
:10210000F1F1D160B0FBF0F12D24B4FBF1F11161DC
:10211000B0FBF3F14FF0E020491E4161072101615E
:1021200010BD000010000020DC0000202DE9F0416F
:10213000374E0446F068844200D904464FF0E02749
:10214000386920F001003861B969B268601E02FB8D
:1021500000153069854200D92D1A72B6BFF34F8F32
:10216000BFF36F8FFEF7E0FF48B37D614FF00008CB
:10217000C7F81880386940F0010038612046FEF742
:10218000FEFC24B1BFF34F8F30BFBFF36F8F2046EB
:10219000FEF7DAFC386920F00101396162B6C0034C
:1021A00019D5B869B168281A081A3269401E9042D8
:1021B00001D3884200D9481E7861641E15E0B869D1
:1021C0007861386940F001003861B068401E78617C
:1021D00062B6BDE8F081B068B9694443611AB1FBE9
:1021E000F0F4621C4243501A7861C7F81880FFF778
:1021F000BFFE386940F001003861204600F030FA37
:10220000B068401E7861BDE8F041FFF7EDBE000008
:10221000DC00002010B5FEF729F8104C10280CD374
:1022200000F1E02090F8F0032178884205D24FF4C5
:102230002A720BA115A0FEF73FF8184800686169E3
:1022400000F4E060884207D9BDE810404FF42E72D8
:1022500003A10EA0FEF730B810BD0000DC00002086
:102260002E2E5C4672656552544F535C706F7274CB
:1022700061626C655C525644535C41524D5F434D04
:10228000335C706F72742E63000000004572726FD1
:10229000723A25732C25640D0A0000000CED00E055
:1022A00010B5074B002253F832401CB1521C082ACB
:1022B000F9D310BD43F8321003EBC201486010BDE2
:1022C000C056002070B515460E460446FFF750FE76
:1022D00094F944100020491C01D184F8440094F979
:1022E0004510491C01D184F84500FFF77DFEA06B25
:1022F00028B92A46314604F1240000F0D1F82046DE
:10230000BDE87040FFF76CBC10B5040012D00E4958
:10231000096B29B140F2CF420CA111A0FDF7CCFF0F
:1023200000F0C4F900212046FFF71CF800F0F0FE91
:10233000002807D10E494FF080500860BFF34F8F3F
:10234000BFF36F8F10BD00006C0000202E2E5C4686
:1023500072656552544F535C7461736B732E6300E6
:102360004572726F723A25732C25640D0A000000C5
:1023700004ED00E070B50446FFF7FAFD234D04B903
:102380002C68201DFFF7B0FD58B9E06A204A00EB29
:10239000800152F8211021B9012181402869884328
:1023A0002861A06A18B104F11800FFF79DFD686A62
:1023B000401C68622868844207D1211D1548FFF738
:1023C000CBFD6868401C686007E0A868401EA860F4
:1023D0002046FFF702F9FFF763FBFFF705FE686988
:1023E000002812D0286884420FD1286B28B140F20F
:1023F000654209A10DA0FDF75FFF10494FF0805025
:102400000860BFF34F8FBFF36F8F70BD6C0000206B
:1024100000570020BC5900202E2E5C467265655284
:10242000544F535C7461736B732E63004572726F0B
:10243000723A25732C25640D0A00000004ED00E0BB
:1024400001490120C86170476C00002070B50D463D
:10245000040005D140F6063207A10CA0FDF72CFFC1
:102460000E48016820461831FFF75EFD2846BDE89A
:1024700070400121FEF776BF2E2E5C4672656552D4
:10248000544F535C7461736B732E63004572726FAB
:10249000723A25732C25640D0A0000006C000020A0
:1024A00070B514460E46050005D140F6313209A13B
:1024B0000DA0FDF701FF1048016828461831FFF70D
:1024C0004BFD0CB14FF0FF3621463046BDE8704061
:1024D000FEF748BF2E2E5C4672656552544F535C22
:1024E0007461736B732E63004572726F723A257359
:1024F0002C25640D0A0000006C00002070B504005B
:1025000039D01D4DE06A2968C96A884233D2A06972
:10251000002804DB2868C06AC0F12000A061E06ADE
:10252000164E00EB8000616906EB800081421FD1EE
:10253000201DFFF7D9FC012150B9E06A00EB8002B1
:1025400056F8222022B92A6901FA00F082432A6152
:102550002868C06AE0622A6981401143296100EB62
:10256000800006EB8000211DBDE87040FFF7F4BC41
:102570002868C06AE06270BD6C000020005700202F
:1025800010B5040005D140F6C13205A109A0FDF740
:1025900093FE0C48016A2160C068606010BD0000B5
:1025A0002E2E5C4672656552544F535C7461736B9A
:1025B000732E63004572726F723A25732C25640D79
:1025C0000A0000006C0000201CB518480024CDE96A
:1025D00000402346822216A1174800F03DFC012846
:1025E00003D100F041FE01280AD0401C1DD102B0E9
:1025F00040F28472BDE8104010A115A0FDF75CBE4A
:10260000502080F31188BFF34F8FBFF36F8F0748BF
:102610004FF0FF312C38816201214161C460FEF727
:1026200033F9BDE81C4000F097B81CBD98000020AD
:1026300049444C4500000000711600082E2E5C46EF
:1026400072656552544F535C7461736B732E6300F3
:102650004572726F723A25732C25640D0A000000D2
:1026600070B5084D0446E868A96A2044884205D937
:1026700040F6711204A109A0FDF71EFEE86820448F
:10268000E86070BD6C0000202E2E5C4672656552BD
:10269000544F535C7461736B732E63004572726F99
:1026A000723A25732C25640D0A0000000248016B64
:1026B000491C0163704700006C00002070B51A4C83
:1026C000206B10B10120E06170BD0020E06117496E
:1026D00008684968A063626B904204D92168821A35
:1026E0008B6D1A448A6560632069114EB0FA80F0E0
:1026F000C0F11F0000EB800556F8250028B940F610
:10270000F6220CA110A0FDF7D7FD06EB850000F125
:102710000802416849684160914201D149684160BD
:10272000C868206070BD00006C00002028000020F8
:10273000005700202E2E5C4672656552544F535C44
:102740007461736B732E63004572726F723A2573F6
:102750002C25640D0A0000001CB51A490878019068
:10276000FF20087008788DF800009DF80000164CD6
:1027700000F0500020700720606107E06069401E93
:1027800060619DF8000040008DF800009DF8000099
:102790000006F3D4207D000200F4E060606101983F
:1027A00008700A48016841F470010160016841F055
:1027B00070410160FFF798FC00206060FDF720FD8C
:1027C00000201CBD00E400E0DC00002020ED00E063
:1027D00010B5502080F31188BFF34F8FBFF36F8F78
:1027E00000F07AFB18B104494FF0805008600020D7
:1027F00080F3118810BD000004ED00E02DE9F041E8
:1028000017460E46050005D14FF4C47210A115A05D
:10281000FDF752FDBEB105FB06F05430FFF71CFA80
:1028200004000ED004F154007EB12060C4E90F56BC
:102830002046012100F0E0F884F850700021204685
:10284000A164BDE8F0810020E7E72460EEE7000026
:102850002E2E5C4672656552544F535C71756575DA
:10286000652E63004572726F723A25732C25640DD4
:102870000A0000002DE9FF4F83B09B468A46040002
:102880004FF0000605D140F2DC4251A155A0FDF702
:1028900013FDBAF1000F07D1206C28B140F2DD42E0
:1028A0004BA150A0FDF708FD00F002FB38B90598D8
:1028B00028B14FF49C6246A14AA0FDF7FDFC4FF001
:1028C00000094FF08057DFF82C81FFF751FBA56B13
:1028D00045B351462046E668FEF736FEBBF1000FD1
:1028E00013D0E660606A50B104F1240000F0C2FB2E
:1028F00028B1C8F80070BFF34F8FBFF36F8FFFF799
:1029000073FB012007B0BDE8F08F6D1EA563206842
:1029100010B9FFF72BFA606020690028EFD004F1AE
:102920001000E3E7059808B11EB106E0FFF75CFB75
:1029300027E06846FFF724FE0126FFF755FBFFF767
:10294000B5FEFFF715FB94F94400401C01D184F853
:10295000449094F94500401C01D184F84590FFF75C
:1029600043FB05A9684600F033FA002820460AD048
:10297000FFF736F900F0CCFB2046FEF75DFF00289C
:10298000A3D00020BEE7FEF757FFD8B1206830B9CA
:10299000FFF7EEFA6068FFF7B1FDFFF725FB04F1E2
:1029A00024000599FFF752FD2046FFF719F900F0C2
:1029B000AFFB002889D1C8F80070BFF34F8FBFF379
:1029C0006F8F82E72046FFF70BF900F0A1FB7CE751
:1029D0002E2E5C4672656552544F535C7175657559
:1029E000652E63004572726F723A25732C25640D53
:1029F0000A00000004ED00E070B50D46040005D1AA
:102A000040F21B121CA121A0FDF756FCFFF7B0FA03
:102A1000D4E90F20216802FB001161600021A1634D
:102A20002168A1600A46D4E90F01401E00FB012184
:102A3000E16021464FF0FF3001F8440F487004F187
:102A400010004DB1FFF762FA04F12400FFF75EFABF
:102A5000FFF7CAFA012070BD21690029F8D000F003
:102A600009FB0028F4D00D494FF080500860BFF3F7
:102A70004F8FBFF36F8FEBE72E2E5C46726565526A
:102A8000544F535C71756575652E63004572726FA6
:102A9000723A25732C25640D0A00000004ED00E055
:102AA0002DE9FF4F83B099468B4604004FF0000696
:102AB00005D140F2D92252A156A0FDF7FDFBBBF192
:102AC000000F07D1206C28B140F2DA224CA151A0AE
:102AD000FDF7F2FBB9F1020F08D1E06B012805D038
:102AE00040F2DB2246A14BA0FDF7E6FB00F0E0F947
:102AF00038B9059828B140F2DE2241A145A0FDF782
:102B0000DBFB4FF0000A4FF08057DFF81881FFF72A
:102B10002FFAA06BE16B884206D3B9F1020F03D004
:102B2000059800B316B325E04A4659462046FEF7FD
:102B30001EFDA16C21B149462046FEF78BFE05E043
:102B4000616A19B104F1240000F094FA28B1C8F8C0
:102B50000070BFF34F8FBFF36F8FFFF745FA01206F
:102B600007B0BDE8F08FFFF73FFA21E06846FFF7B6
:102B700007FD0126FFF738FAFFF798FDFFF7F8F990
:102B800094F94400401C01D184F844A094F9450014
:102B9000401C01D184F845A0FFF726FA05A9684634
:102BA00000F016F930B12046FFF71AF800F0B0FA3D
:102BB0000020D5E7FFF7DCF9A06BE16B884201D17B
:102BC000012500E00025FFF70FFA95B104F1100090
:102BD0000599FFF73BFC2046FFF702F800F098FA52
:102BE000002894D1C8F80070BFF34F8FBFF36F8FE8
:102BF0008DE72046FEF7F4FF00F08AFA87E7000031
:102C00002E2E5C4672656552544F535C7175657526
:102C1000652E63004572726F723A25732C25640D20
:102C20000A00000004ED00E02DE9F0479846154643
:102C30008946040005D140F29F322AA12EA0FDF75B
:102C40003BFBB9F1000F07D1206C28B14FF468723B
:102C500024A129A0FDF730FBB8F1020F08D1E06BE9
:102C6000012805D040F2A1321EA123A0FDF724FBCC
:102C7000FFF7D0FA5020EFF3118780F31188BFF3EC
:102C80004F8FBFF36F8FA06BE16B884207D3B8F112
:102C9000020F04D0002087F31188BDE8F08794F973
:102CA0004560424649462046FEF761FC701C04D050
:102CB000761C84F845600120EDE7A06C012620B168
:102CC00041462046FEF7C6FD06E0606A0028F2D0C5
:102CD00004F1240000F0CEF90028ECD0002DEAD059
:102CE0002E60E8E72E2E5C4672656552544F535CA9
:102CF00071756575652E63004572726F723A257342
:102D00002C25640D0A0000002DE9F0410D46040059
:102D100005D140F23C4225A129A0FDF7CDFA206C57
:102D200028B14FF4886221A125A0FDF7C5FA2068DB
:102D300038B9606828B140F245421CA120A0FDF7D7
:102D4000BBFAFFF767FA5020EFF3118680F3118882
:102D5000BFF34F8FBFF36F8FA16BE06B88421FD91A
:102D600094F94500491CA163411C04D0401C84F81F
:102D70004500012015E0A06C012720B1002120466C
:102D8000FEF768FD06E0606A0028F2D004F1240036
:102D900000F070F90028ECD0002DEAD02F60E8E7B1
:102DA000002086F31188BDE8F08100002E2E5C46DD
:102DB00072656552544F535C71756575652E63007D
:102DC0004572726F723A25732C25640D0A0000005B
:102DD00070B50D46040005D140F6CB3214A119A000
:102DE000FDF76AFA2DB940F6CC3211A115A0FDF716
:102DF00063FAFFF7BDF8174AD06829684B1C0FD05B
:102E00002368126A934202D0626882420AD96268D9
:102E1000801A884206D2081A28602046FFF7B0FBC5
:102E2000002400E00124FFF7DFF8204670BD000019
:102E30002E2E5C4672656552544F535C7461736B01
:102E4000732E63004572726F723A25732C25640DE0
:102E50000A0000006C0000202DE9FF5F8346DDE9D9
:102E60000E87994616468A469000FEF7F5FE050045
:102E70001AD06420FEF7F0FE040012D02563002172
:102E8000CDE90241CDE900874B46324651465846CE
:102E9000FEF730FC2046FEF79DFA012004B0BDE8A5
:102EA000F09F2846FFF7D2F84FF0FF30F6E700001A
:102EB0000548416919B1006B18B100207047012025
:102EC00070470220704700006C0000200148C06875
:102ED000704700006C0000202DE9F0412D4F0026C6
:102EE000386B40B1B869401CB861F86900B101267F
:102EF0003046BDE8F081FD686D1CFD6011D1F86BB6
:102F0000006828B140F6D91223A128A0FDF7D4F912
:102F1000F86B396CF9633864386A401C3862FEF724
:102F2000BFFDB86ADFF89480854209D3F86B00686A
:102F300080B1F86BC068C468606885420DD2B86221
:102F40003868C06A00EB800158F821000128CCD90C
:102F50000126CAE74FF0FF30F1E7201DFEF7C4FF5E
:102F6000A06A18B104F11800FEF7BEFFE06A012163
:102F70003A6981401143396100EB800108EB81001F
:102F8000211DFEF7E9FFE06A3968C96A8842CDD39E
:102F90000126CBE76C0000202E2E5C467265655240
:102FA000544F535C7461736B732E63004572726F80
:102FB000723A25732C25640D0A000000005700208A
:102FC00070B504004FF000063CD01F4D28688442C5
:102FD00005D040F6C7621DA121A0FDF76DF9606D17
:102FE00028B940F6C96219A11DA0FDF765F9606D09
:102FF000401E6065226DE16A914223D010BB201D06
:10300000FEF772FF1A49012250B9E06A00EB800313
:1030100051F8233023B92B6902FA00F083432B6166
:10302000206DE062C0F12000A061E06A2B6982405F
:103030001A432A6100EB800001EB8000211DFEF79E
:103040008BFF0126304670BD6C0000202E2E5C46A2
:1030500072656552544F535C7461736B732E6300D9
:103060004572726F723A25732C25640D0A000000B8
:10307000005700202DE9F041C068C4682CB940F623
:10308000613217A11BA0FDF717F904F118000746DC
:10309000FEF72AFF1B4D286B012658B139461A4806
:1030A000FEF75AFFE06A2968C96A884212D90124EA
:1030B000EE6110E0201DFEF717FFE06A2A6906FAAC
:1030C00000F111432961114900EB800001EB800000
:1030D000211DE5E70024FEF7E3FC2046BDE8F08172
:1030E0002E2E5C4672656552544F535C7461736B4F
:1030F000732E63004572726F723A25732C25640D2E
:103100000A0000006C000020A85900200057002091
:103110002DE9F0472B4D00242746286B28B94FF4A2
:10312000FD6229A12DA0FDF7C7F8FEF721FF286B4E
:10313000401E2863286BE8BBA8682C490126C8B349
:10314000A1F52A798846D8F80010E9B1D8F80C0022
:10315000C46804F11800FEF7C7FE201DFEF7C4FE88
:10316000E06A2A6906FA00F11143296100EB800147
:1031700009EB8100211DFEF7EFFEE06A2968C96AAC
:103180008842E0D3EE61DEE70CB1FEF789FCAC6962
:103190003CB1FFF7A1FE00B1EE61641EF9D1002041
:1031A000A861E86930B11249012738070860BFF308
:1031B0004F8F00E001E0BFF36F8FFEF715FF384639
:1031C000BDE8F0876C0000202E2E5C4672656552CB
:1031D000544F535C7461736B732E63004572726F4E
:1031E000723A25732C25640D0A000000A8590020AE
:1031F00004ED00E02DE9F0470746994616460D46D6
:103200002C20DDF820A0FEF727FD040014D0B846DE
:103210004F46D1462DB94FF4C67209A10EA0FDF755
:103220004BF8FEF73FF904F11801C4F8008081E87B
:10323000E002201DFEF775FE2046BDE8F087000085
:103240002E2E5C4672656552544F535C74696D65F1
:1032500072732E63000000004572726F723A25731C
:103260002C25640D0A0000001CB50024FEF71AF995
:103270000C48006868B10B491F20091DCDE9000109
:1032800000234FF4827208A10948FFF7E5FD04000E
:1032900005D140F2331207A10CA0FDF70DF820462E
:1032A0001CBD0000B0000020546D722053766300F6
:1032B000B91B00082E2E5C4672656552544F535C54
:1032C00074696D6572732E63000000004572726F41
:1032D000723A25732C25640D0A0000002DE9FF4782
:1032E000DDF830A0994690460D4606004FF00007E5
:1032F00005D14FF4D37212A117A0FCF7DDFF1A4CD1
:10330000206880B1CDE900580296062D11DAFFF74A
:10331000CFFD02284FF0000309D000226946206843
:10332000FFF7BEFB074604B03846BDE8F0875246BB
:10333000F4E700234A466946FFF776FCF2E700000F
:103340002E2E5C4672656552544F535C74696D65F0
:1033500072732E63000000004572726F723A25731B
:103360002C25640D0A000000B0000020800200003F
:103370000078000020000000200000000050000045
:1033800000000F00A433000800000020F40000003B
:103390006C01000898340008F40000207CAF0000A5
:1033A000880100080000000000000000000000008C
:1033B0000000000000A24A0400000000000000001D
:1033C00001020304060708090000000000000000D5
:1033D00000000000000000000000000000000000ED
:1033E00002040608000000000102030401020304B5
:1033F0000607080921120008E9120008C001002090
:1034000000000068C051002000000F6800000000AC
:1034100000000000000000000000000000000000AC
:10342000000000000000000000000000000000009C
:10343000000000000000000000000000000000008C
:10344000000000000000000000000000000000007C
:10345000000000000000000000000000000000006C
:10346000000000000000000000000000000000005C
:10347000000000000000000000000000000000004C
:1034800000000000AAAAAAAA000000000000000094
:08349000000000000000000034
:040000050800027578
:00000001FF
