:020000040800F2
:1000000050B1002075020008F109000843090008FA
:10001000EF090008250800087D1100080000000015
:10002000000000000000000000000000DD010008EA
:100030009D0800080000000021020008F50B0008E0
:100040008F0200088F0200088F0200088F0200084C
:100050008F0200088F0200088F0200088F0200083C
:100060008F0200088F0200088F0200088F0200082C
:100070008F0200088F0200088F0200088F0200081C
:100080008F0200088F0200088F0200088F0200080C
:100090008F0200088F0200088F0200088F020008FC
:1000A0008F0200088F0200088F0200088F020008EC
:1000B0008F020008590C00088F0200088F02000808
:1000C0008F0200088F0200088F0200088F020008CC
:1000D0008F020008090F00089D0F00088F0200081A
:1000E0008F0200088F0200088F0200088F020008AC
:1000F0008F0200088F0200088F0200088F0200089C
:100100008F0200088F0200088F0200088F0200088B
:100110008F0200088F0200088F0200088F0200087B
:100120008F0200088F0200088F0200088F0200086B
:1001300000F002F800F042F80AA090E8000C8244B7
:100140008344AAF10107DA4501D100F037F8AFF294
:10015000090EBAE80F0013F0010F18BFFB1A43F0A5
:10016000010318476833000088330000103A24BFA9
:1001700078C878C1FAD8520724BF30C830C144BF0C
:1001800004680C607047000000230024002500264E
:10019000103A28BF78C1FBD8520728BF30C148BFEA
:1001A0000B607047642900F00581732900F07B82A1
:1001B000002070471FB51FBD10B510BD00F0E7FA55
:1001C0001146FFF7F7FF01F023F800F005FB03B439
:1001D000FFF7F2FF03BC00F0D2FF0000224B1968CA
:1001E0000868B0E8F00F80F30988BFF36F8F4FF015
:1001F000000080F311884EF00D0E704700000000E3
:1002000006480068006880F3088862B661B6BFF3EC
:100210004F8FBFF36F8F00DF00BF00BF08ED00E01E
:10022000EFF30980BFF36F8F0F4B1A6820E9F00FCF
:10023000106008B54FF0500080F31188BFF34F8F66
:10024000BFF36F8F02F0DEFA4FF0000080F31188E9
:10025000BDE8084019680868B0E8F00F80F3098825
:10026000BFF36F8F704700BF6C000020EFF3058075
:10027000704700000948804709480047FEE7FEE74D
:10028000FEE7FEE7FEE7FEE7FEE7FEE7FEE7FEE746
:1002900004480549054A064B70470000090C000850
:1002A0003101000850AB002050B1002050AD0020BB
:1002B00050AD0020704700000FB4044910B503AAE8
:1002C000029800F0F5F910BC5DF814FB380000202E
:1002D0000FB41CB5074B06AA7B44694600900598ED
:1002E00000F0B7F90020694600F0C6F91CBC5DF8C3
:1002F00014FB00009D0300002DE9F0410E4604466A
:10030000002020622046E168884730B3252805D0C8
:10031000D4E901219047206A401CF2E7E1682046B9
:1003200000278847050018D0A5F14100192802D8F8
:1003300020354FF400673246294620462760FFF7F4
:1003400031FF40B1012804D0F61D26F0070608361B
:10035000D8E7361DD6E72846DAE7206ABDE8F081FF
:1003600070B50C460546012A05D02878800600D5D0
:10037000EA69002302E0012305E05B1C934202D2FC
:10038000E05C0028F9D1A869E618C01AA861286ABB
:10039000184428622846AFF3008004E0D5E9012123
:1003A00014F8010B9047B442F8D32846AFF300800D
:1003B00070BD00002DE9F041064600241068752943
:1003C000314616A510D0AFF30080002802DA404273
:1003D00013A507E031688A0701D512A502E0490795
:1003E00004D511A5012401E0AFF3008000210A2209
:1003F00006F1240709E0B0FBF2FCB0FBF2F302FBCC
:100400001C00303078541846491C0028F3D123468C
:100410002A463046BDE8F04100F0BCB800000000BC
:100420002D0000002B00000020000000032A40F2F5
:10043000308010F0030C00F0158011F8013BBCF186
:10044000020F624498BF11F801CB00F8013B38BF9E
:1004500011F8013BA2F1040298BF00F801CB38BFAC
:1004600000F8013B11F0030300F03481083AC0F0BA
:10047000088051F8043B083A51F804CBA0E8081072
:10048000F5E7121D5CBF51F8043B40F8043BAFF3A5
:100490000080D20724BF11F8013B11F801CB48BFFF
:1004A00011F8012B24BF00F8013B00F801CB48BF35
:1004B00000F8012B704702F0FF0343EA032242EAEF
:1004C000024200F002B84FF000020429C0F012808E
:1004D00010F0030C00F03281CCF1040CBCF1020FDF
:1004E00018BF00F8012BA8BF20F8022BA1EB0C01CC
:1004F00000F024B95FEAC17C24BF00F8012B00F8AA
:10050000012B48BF00F8012B704700004FF0013C61
:1005100050F8042B51F8043B9A4221D1A2EB0C0372
:10052000934313EACC1317D150F8042B51F8043B32
:100530009A4215D1A2EB0C03934313EACC130BD1CF
:1005400050F8042B51F8043B9A4209D1A2EB0C035A
:10055000934313EACC13DBD04FF00000704700BF89
:10056000D01A01BAB1FA81F101F0180122FA01F0B2
:10057000CB40C1F12001DBB2C0B2C01A2CFA01F3AA
:10058000D11A914311EAC311E6D170477047704701
:10059000704770472DE9F0470D469946924604464C
:1005A00000F124080168880604D5E06921F01001F3
:1005B000216000E00120A84201DD471B00E0002788
:1005C000A1697A1902EB0900081AA0612078C00617
:1005D00002D42046AFF30080002608E0D4E90121D0
:1005E0001AF806009047206A401C761C20624E458F
:1005F000F4DB2078C0060AD52046AFF3008006E081
:10060000D4E9012130209047206A401C2062381E26
:10061000A7F10107F4DC07E0D4E9012118F805008F
:100620009047206A401C2062281EA5F10105F3DCDA
:100630002046AFF300802078000602D50220BDE8F6
:10064000F0870120FBE7000001694A1C026108787D
:10065000704700B58FB0CDE9013100210591054902
:100660007944CDE9031011466846FFF745FE0FB007
:1006700000BD0000E5FFFFFF0A6802F8010B0A60F9
:10068000704710B5436913B1AFF3008001E0FFF785
:1006900067FE012010BD127800F124010A700022CB
:1006A0004A700122EDE711684FF0FF32E9E70000E0
:1006B000074B70B50D467B44FFF7CBFF0446284639
:1006C00000F061F810B14FF0FF3070BD204670BDF2
:1006D0003F0B000010B5203AC0F00B80B1E8185075
:1006E000203AA0E81850B1E81850A0E81850BFF41C
:1006F000F5AF5FEA027C24BFB1E81850A0E81850BB
:1007000044BF18C918C0BDE810405FEA827C24BF0E
:1007100051F8043B40F8043B08BF7047D20728BF9C
:1007200031F8023B48BF11F8012B28BF20F8023BEB
:1007300048BF00F8012B70474FF0000200B5134688
:1007400094469646203922BFA0E80C50A0E80C50F1
:10075000B1F12001BFF4F7AF090728BFA0E80C50A2
:1007600048BF0CC05DF804EB890028BF40F8042B9B
:1007700008BF704748BF20F8022B11F0804F18BF08
:1007800000F8012B7047007B00F080007047754631
:1007900000F028F8AE4605006946534620F00700F1
:1007A000854618B020B5FFF773FDBDE820404FF037
:1007B00000064FF000074FF000084FF0000B21F04B
:1007C0000701AC46ACE8C009ACE8C009ACE8C00918
:1007D000ACE8C0098D4670470446AFF30080204660
:1007E000FFF7F5FC00487047ECAA002038B501215E
:1007F000082000F049F94FF48074ADF80040102053
:100800008DF803000320064D8DF802006946284646
:1008100000F045F82146284600F08FF838BD00006A
:10082000000C0140FEE7000070B50546FF240EA154
:10083000FFF76CFE78B10EA12846FFF767FE60B1A6
:100840000DA12846FFF762FE48B10DA12846FFF72B
:100850005DFE30B106E0012404E0022402E003243E
:1008600000E00424204670BD4C4544314F4E00004A
:100870004C4544314F464600424545504F4E0000DE
:10088000424545504F464600034800220260426000
:100890004721312000F0FAB9280000207047F0B558
:1008A000CC78002204F00F03E40601D58C782343B2
:1008B0000C784FF00F0C14F0FF0F4FF0010E1BD00F
:1008C00005680E880EFA02F42640A64210D1960062
:1008D0000CFA06F725EA070703FA06F5CE783D433A
:1008E000282E02D0482E02D002E0446100E00461CC
:1008F000521C082AE5D305600A88FF2A1CD94468DF
:10090000002202F108060EFA06F50E882E40AE42CD
:100910000ED196000CFA06F7BC4303FA06F7CE7820
:100920003C43282E00D14561CE78482E00D1056188
:10093000521C082AE5D34460F0BD41617047016153
:100940007047FEE708B50121442000F09DF81C2007
:10095000ADF8000048208DF8030069460648FFF70F
:100960009EFF0120ADF8000028208DF803006946A5
:100970000248FFF794FF08BD00180140000801403D
:1009800038B50121482000F07FF82024ADF8004060
:1009900010208DF8030003200B4D8DF802006946EE
:1009A0002846FFF77CFF20212846FFF7C8FFADF857
:1009B0000040064C69462046FFF771FF2021204683
:1009C000FFF7BDFF38BD0000000C014000180140DA
:1009D00010B5002208E0835CA3F161041A2C01D257
:1009E000203B8354521CD2B28A42F4D310BDFEE79E
:1009F0007047000030B50F23C27801780125F2B1AD
:100A0000144A126801F1E02102F4E062C2F5E062EA
:100A1000120AC2F10404D3404278A24084781C40F8
:100A20001443220181F80024007800F01F018D405A
:100A30004009800000F1E020C0F8005130BD01F015
:100A40001F0085404809800000F1E020C0F8805177
:100A500030BD00000CED00E0024908430249086087
:100A6000704700000000FA050CED00E07047704789
:100A7000044A0029D16901D0014300E08143D161DA
:100A80007047000000100240044A0029916901D01B
:100A9000014300E081439161704700000010024073
:100AA00030B5204A5168204B11F00C0103D00429C5
:100AB00001D0082901D0036012E05168536801F4A5
:100AC00070114FF0020413F4803F04EB914102D007
:100AD00053689B0301D5154B00E0134B594301604C
:100AE00051680F2303EA1111114B5C5C0168E1406E
:100AF00041605468072505EA14241C5D21FA04F4BA
:100B00008460546805EAD4241B5DD940C1605268F2
:100B1000032303EA9232064B1B1F9A5CB1FBF2F1EE
:100B2000016130BD0010024000127A0000093D0052
:100B3000400000200CB50022264800920192016876
:100B400041F4803101604FF4A063016801F4003189
:100B500001910099491C0091019911B9009999429C
:100B6000F3D10168890333D5012101911A490A683B
:100B700042F010020A600A6822F003020A600A6862
:100B800042F002020A604168416041684160416888
:100B900041F480614160416821F47C114160416809
:100BA00041F4E8114160016841F080710160016821
:100BB0008901FCD5416821F003014160416841F0A1
:100BC000020141604168C1F381010229FAD10CBDE3
:100BD00001920CBD00100240002002404FF0E021C5
:100BE0000428086903D020F004000861704740F031
:100BF0000400FAE710B502F0FFF9012803D0BDE8C0
:100C0000104001F089BE10BD0F4810B5016841F0D9
:100C10000101016041680D4A1140416001680C4AC0
:100C200011400160016821F480210160416821F4D4
:100C3000FE0141604FF41F018160FFF77BFF054912
:100C40004FF00060086010BD001002400000FFF887
:100C5000FFFFF6FE08ED00E010B50A4C012120462A
:100C600000F04FF8012807D107490A684868521C6C
:100C700040F100000A6048602046BDE810400121B4
:100C800000F032B800040040280000207FB50D4677
:100C9000044601210220FFF7EBFEADF80440ADF859
:100CA000005000240F4DADF80640ADF802406946F3
:100CB000284600F03BF801221146284600F02DF8A6
:100CC0001D208DF80C0001218DF80D108DF80E40BF
:100CD0008DF80F1003A8FFF78DFE0121284600F0C4
:100CE00006F87FBD00040040C94301827047002917
:100CF000018802D041F0010101E021F001010180F1
:100D0000704702460020138A92890B4202EA0102D0
:100D100002D0002A00D001207047002A828901D029
:100D20000A4300E08A4382817047000030B50288A0
:100D30001B4C1C4DA0420DD0A8420BD0B0F1804FEF
:100D400008D0194B984205D0184B984202D0184B46
:100D5000984203D122F070034A881A43154B9842F7
:100D600006D0154B984203D022F44073CA881A4328
:100D700002808A8882850A880285A0420AD0A84219
:100D800008D00E4A904205D00D4A904202D00D4A3A
:100D9000904201D1097A01860121818230BD000093
:100DA000002C0140003401400004004000080040D5
:100DB000000C0040001000400014004000400140C2
:100DC0000044014000480140DFF898B0264FDFF8AA
:100DD0009C90274E4FF00108002500235A1E19460B
:100DE000DBF80C0001F0EAFD0128F6D13478002090
:100DF000611C00F0F7FA82461E4A1FA1FFF768FA4D
:100E000050460AF804502146FFF7E2FD5046FFF72E
:100E10000BFD0446FF2818D0514618A0FFF74CFAE6
:100E2000012C06D0022C07D0032C08D0042C0FD1A3
:100E300008E0C7F894510BE0C7F8948108E0C9F8BE
:100E4000A08105E0C9F8A05102E00FA0FFF734FA35
:100E50003580C8210748FFF736FB5146002000F0D7
:100E6000B5FABAE7000000200000234200802142CA
:100E700034000020F400002025730000C3FCC1EE04
:100E8000CEAA3A25730D0A00CEDED0A7B5C4C3FCA6
:100E9000C1EEA3ACC7EBD6D8D0C2CAE4C8EB2121BF
:100EA0000D0A00004FF0FF39DFF84C80134E002789
:100EB00000234A461946D8F8100001F07FFD0128AA
:100EC000F6D134780020611C00F08CFA05460755F5
:100ED0000B4A0CA1FFF7FCF9641CE2B22946022080
:100EE00000F0A6FA3780C8210548FFF7ECFA29463A
:100EF000002000F06BFADBE7000000203600002045
:100F0000BC0100202573000038B51F4D40F225516B
:100F1000284600F09EF81D4CD8B1284600F026F96E
:100F2000C1B22088020417D443044FF0000204D554
:100F30000A290DD140F4004023E00D291FD0C0F351
:100F40000D03134D401C80B2E9542080C72800D9FE
:100F500022802088000411D50E48006800280DD09A
:100F6000694601F075FF0098002807D00A494FF044
:100F700080500860BFF34F8FBFF36F8F38BD40F4D0
:100F800080402080E5E70000003801403400002068
:100F9000F40000200C00002004ED00E038B51F4DE7
:100FA00040F22551284600F054F81D4CD8B128468F
:100FB00000F0DCF8C1B26088020417D443044FF09B
:100FC000000204D50A290DD140F4004023E00D2988
:100FD0001FD0C0F30D03134D401C80B2E954608054
:100FE000C72800D962806088000411D50E480068C7
:100FF00000280DD0694601F02BFF0098002807D08B
:101000000A494FF080500860BFF34F8FBFF36F8FD6
:1010100038BD40F480406080E5E7000000440040B7
:1010200034000020BC0100201000002004ED00E08E
:101030000029818902D041F4005101E021F40051DE
:10104000818170470246002012880A4200D00120A8
:10105000704770B501F01F0501260024C1F342134B
:1010600006FA05F2012B0FD0022B0FD0838A4FEA2C
:1010700011210088134206FA01F600EA060001D0A9
:1010800000B10124204670BD8389F0E7038AEEE7B2
:1010900010B5C1F3421301F01F040121A140012B3F
:1010A00007D0022B07D01430002A026805D00A436B
:1010B00004E00C30F8E71030F6E78A43026010BD18
:1010C00030B50446008A85B00D464CF6FF710840E5
:1010D000E98801432182A0894EF6F3110840A988CE
:1010E0002A8911436A8902431143A181A08A4FF6DC
:1010F000FF410840A9890143A1826846FFF7D0FC5F
:101100001948844201D1039800E00298A18909049A
:1011100000EBC00101EB0010296801D5490000E097
:101120008900B0FBF1F06422B0FBF2F109010B0978
:101130006FF018056B4300EB8300A3891D044FF08B
:10114000320306D503EBC000B0FBF2F000F007005D
:1011500005E003EB0010B0FBF2F000F00F000843D5
:10116000208105B030BD0000003801408088C0F308
:1011700008007047C1F3080181807047FEE770479F
:1011800010B50420FFF72AFD0C480D490D4A0068F0
:10119000B0FBF1F3B0FBF1F14FF47A7041431370FF
:1011A000012050804FF0E020026942F0020202610B
:1011B0004161016941F00101016110BD140000208D
:1011C00040420F003000002009490120096809B1A0
:1011D000002070470749CA69002AF9D1044A896882
:1011E00028321268491E8A42F3D10220704700005B
:1011F000885A00206C00002004490A885206FCD559
:10120000024AC1B2121D118070470000003801402F
:101210001CB54FF44070FFF71FFCFFF7B1FF4FF410
:10122000E1342146012000F0F3F82146022000F0CD
:10123000EFF8FFF7A5FBFFF785FBFFF7D7FA0020D4
:1012400000F044F806490120CDE900010202002324
:1012500004A1074801F0A4FE01F05AFA00201CBDC9
:101260000000002073746172745F7461736B00001E
:10127000D51E000870B5134A13181B7E93B1124B8C
:1012800053F820308B421AD90F4B02EB8002083BF7
:1012900053F820301069B1FBF3F130F81140002011
:1012A000034608E011688847012070BD15690E18D3
:1012B000401C25F81630A042F8DB002070BD02204B
:1012C00070BD000050000020C434000870B5044612
:1012D0000B480C4E002150F8240006EB8405420018
:1012E000286900F08FF806480021103050F82420BB
:1012F000A86800F087F801203119087670BD000059
:10130000B4340008500000202DE9F0411F4E05467E
:10131000002470190F46007E10B9316828468847AE
:101320004FF0FF327FB31A4B53F82510B7FBF1F0A3
:10133000B7FBF1FC01FB1C7101B1401C14490839D9
:1013400051F82510491E1ED406EB8506376937F87B
:1013500011C0BCF1000F05D00024844211D100223D
:1013600084B207E0641CF8E7376901EB020C521CF9
:1013700027F81C408242F7D353F825004843BDE8C4
:10138000F081491EE3D51046F9E700005000002027
:10139000BC34000810B50B4B0B4C002253F8203026
:1013A000114604EB800005E0046934F8114004B1F3
:1013B000521C491C8B42F7D864204243B2FBF3F025
:1013C000C0B210BDB434000850000020002906D07F
:1013D000034A02EB80029268891AFFF74BBF7047FD
:1013E0005000002010B50446FFF78EFF411C05D0C9
:1013F000034901EB84018968084410BD002010BD39
:101400005000002001E000F8011B521EFBD2704783
:1014100000280BD0032809D2DFE800F008020500FD
:10142000084600F097BD084600F0E6BD7047000092
:101430002DE9F04790460D4606460024DFF848A007
:10144000DFF848901BE0012E0AD1295D574650462F
:10145000FFF790FE40213846FFF7F4FD0128F9D14F
:10146000022E0AD1295D4F464846FFF783FE4021F0
:101470003846FFF7E7FD0128F9D1641CE4B2444582
:10148000E1D3BDE8F087000000380140004400408F
:101490002DE9F041184E0F460446F5683068001DEE
:1014A00000F0FCFD38B9306890F82C10012088401D
:1014B000316981433161601C07D137B13168BDE8C2
:1014C000F0410E48091D00F021BE30682C44AC42AA
:1014D0004460316805D2306CBDE8F041091D00F070
:1014E000FDBDF06B091D00F0F9FDB06A844200D229
:1014F000B462BDE8F08100006C000020B05A00200A
:101500002DE9F041054600F00DFE2D4EB068401C5F
:10151000B06030682B4F10B1706930B32BE035608C
:10152000B068012827D1002404EB840007EB800079
:1015300000F0C6FD641C202CF6D3234800F0C0FD4B
:101540002148143000F0BCFD1F48283000F0B8FDE1
:101550001D483C3000F0B4FD1B48503000F0B0FD99
:101560001948F0631430306405E03068E96AC06AF5
:10157000884200D83560706A0121401C7062A864FE
:10158000E86A326981401143316100EB800007EB6A
:101590008000291D00F0BAFD00F000FE70690028EF
:1015A0000CD03068E96AC06A884207D207494FF018
:1015B00080500860BFF34F8FBFF36F8FBDE8F0819D
:1015C0006C000020E0570020605A002004ED00E08D
:1015D00010B500F0A7FD0E4C2068A0B90D4800F032
:1015E0006FFD0C48143000F06BFD0A48E0601430C9
:1015F000206100221021052001F0A4F9206010B123
:1016000005A100F027FFBDE8104000F0C7BD0000B5
:10161000B0000020C45A0020546D72510000000038
:1016200070B5124E124D1CE001F0E4F8306820B1A4
:10163000002401F011FEA4B901E00124F9E700F053
:1016400071FDF068C468201D00F028FDA868401EE8
:10165000A8606868401E686000F0A0FD204600F0A9
:1016600052F868680028DFD170BD00009C5A002045
:101670006C00002030B4026C0B46002A0BD0C1680D
:101680001144C1604468A14201D30168C16030BC0B
:101690001846FEF7CBBE30BC70472DE9F041856B94
:1016A000174604460026026C82B1C7B1E068FEF717
:1016B000BDFEE168206C091AE1602268914202D205
:1016C0006168081AE060022F16D017E02068A8B9F8
:1016D000606801F019FD0646002060600EE0A06819
:1016E000FEF7A4FE216CA0680844A06061688842EF
:1016F00004D32068A06001E005B16D1E6D1CA563D8
:101700003046BDE8F08110B50446006B00F078FD6E
:101710002046BDE8104000F073BD00000A490020DB
:101720000A69012A00D901200A68D26A0AB1002098
:101730007047064A1268012AF9D80028F7D1886A4A
:10174000C968401A704700006C000020E057002074
:1017500010484FF4A041420706D0C01D0D4920F0AB
:101760000700411AC1F5A0410B4A00230144C2E918
:1017700000030839103A21F0070111604B600B603B
:101780000B1AC0E9001393604FF000405360D06023
:1017900070470000EC5A0020D4000020144D4FF098
:1017A0008056144F144C40F68C48FFF739FF2868D8
:1017B000012804D93E60BFF34F8FBFF36F8FFFF74F
:1017C000ADFF0228F1D301F015F8A06AE168884264
:1017D00004D2424609A10EA0FEF76EFDFFF79EFF60
:1017E000022801D300F07CFD01F036FDDDE70000AA
:1017F000E057002004ED00E06C0000202E2E5C4637
:1018000072656552544F535C7461736B732E630041
:101810004572726F723A25732C25640D0A00000020
:101820002DE9F047DDE909840E461746824691000E
:101830009946089DA522206BFEF73DFE6FF003013F
:10184000206B01EB8701084420F00707780705D0DB
:1018500040F22B3219A11EA0FEF72EFD0020221807
:10186000315C82F83410315C11B1401C1428F6D37D
:10187000002684F84760202D00D31F25E562C4E9C7
:101880001456201D00F027FC04F1180000F023FC82
:101890002461C5F120006462A061A665E66584F854
:1018A00060604A465146384600F002FB2060B8F1BD
:1018B000000F01D0C8F80040BDE8F0872E2E5C462E
:1018C00072656552544F535C7461736B732E630081
:1018D0004572726F723A25732C25640D0A00000060
:1018E00030B5114900E011460A688242FBD34B68CB
:1018F0005C18844203D14068184448600846436835
:101900001C18944209D1084C103C2468A24209D00A
:1019100052681A4442600A6812680260814200D02C
:10192000086030BD0460F9E7D400002070B50024E1
:1019300041600B4D0061914206D8D11A82699142F3
:1019400006D2011D286907E09A4203D2994201D3C9
:10195000012403E0011DE86800F0C0FB204670BDD3
:10196000B000002010B5044600F0DCFBA06B20B1F5
:10197000002400F013FC204610BD0124F9E700000C
:101980002DE9F34100980F460026846C2CB940F6EF
:10199000CE1216A11AA0FEF78FFCA06BE16B884255
:1019A00005D340F6CF1211A115A0FEF785FCA06B60
:1019B000E16B88420CD294F945503A46694620467C
:1019C000FFF76BFE0646681C05D06D1C84F8455079
:1019D0003046BDE8FC81606A0028F9D004F124009B
:1019E00001F0ECFB0028F3D00126F1E72E2E5C4637
:1019F00072656552544F535C71756575652E630051
:101A00004572726F723A25732C25640D0A0000002E
:101A1000F8B5054614480E46C068C068C468201D65
:101A200000F03CFBE069012817D1A0692B46411961
:101A300032462046FFF77AFF78B100200346014680
:101A400000902A46204601F0EDFC30B907494FF4DA
:101A5000027201F11800FEF72FFC616A01B0204606
:101A6000BDE8F04008470000B000002088330008BF
:101A700070B586B02F4E53E00198002806DADDE9F4
:101A80000301029A90470198002849DB039C606992
:101A900010B1201D00F002FB05A800F0A7F80546D4
:101AA00001980A283CD2DFE800F00505053B2738FD
:101AB00005053B270298A169034601442A462046B2
:101AC000FFF734FF00282BD0616A20468847E06981
:101AD000012825D1002000900298A1690023421816
:101AE0001946204601F09EFCD0B940F2213212A1E5
:101AF00017A0FEF7E1FB13E00298A06128B94FF4AC
:101B00004E720DA112A0FEF7D7FBA0692B4641191A
:101B10001A462046FFF70AFF02E0204600F070FB5D
:101B200000231A4601A9306800F048FF0028A3D11D
:101B300006B070BDB00000202E2E5C467265655266
:101B4000544F535C74696D6572732E63000000001E
:101B50004572726F723A25732C25640D0A000000DD
:101B6000F8B50D46064600F045FE684600F03EF822
:101B70000446009810B101F06FFBF8BD1148ADB1FB
:101B800001690968D9B10025311B2A46006800F0B7
:101B900073FC01F061FB0028EFD10B494FF080503E
:101BA0000860BFF34F8FBFF36F8FF8BDA642EBD82D
:101BB00001F052FB21463046FFF72AFFF8BD012510
:101BC000E2E70000B000002004ED00E00648C16B31
:101BD000096829B1C16BC968C968496881627047E1
:101BE0004FF0FF31FAE700006C00002070B50546A9
:101BF00001F010FA064E0446B068844203D200F0A9
:101C000009F8012000E0002028602046B46070BD83
:101C1000B0000020F8B5184E26E0C068C46805681A
:101C2000201D00F03BFA616A20468847E0690128E0
:101C30001AD1A0692844A84206D924616060211DF8
:101C4000F06800F04BFA0FE00020034601460090D8
:101C50002A46204601F0E6FB30B9084940F29232AC
:101C600001F11800FEF728FBF06801680029D4D1C3
:101C70003169C6E90310F8BDB000002088330008C0
:101C800008484068401C04D0F42207A111A0FEF7C8
:101C900013FB502080F31188BFF34F8FBFF36F8F7A
:101CA000FEE70000DC0000202E2E5C4672656552C7
:101CB000544F535C706F727461626C655C52564431
:101CC000535C41524D5F434D335C706F72742E63B1
:101CD000000000004572726F723A25732C25640D66
:101CE0000A000000084CE068016839B1002139B1F0
:101CF0000020FFF735FFFFF7BBFEF4E70121F6E711
:101D0000C0680068F5E70000B00000202DE9F04150
:101D1000044600F007FA94F9455004F1240610E057
:101D2000A06C20B100212046FFF72AFE04E0606A83
:101D300048B1304601F042FA08B100F025FC6D1EB2
:101D40006DB2002DECDC4FF0FF3684F8456000F0FA
:101D500025FA00F0E7F994F9445004F1100709E07E
:101D6000206948B1384601F029FA08B100F00CFCAE
:101D70006D1E6DB2002DF3DC84F84460BDE8F041C7
:101D800000F00CBA2DE9F0410546002600F032FDC6
:101D9000324F386808B9FFF7DBFCF86805424FD1CD
:101DA000002D4DD0083568070BD005F00700C0F1B5
:101DB00008000544680704D0BF2229A132A0FEF71D
:101DC0007BFA002D3CD07868854239D82349103100
:101DD0000846046801E0214604466068A84202D231
:101DE00020680028F7D13868B846844228D00E68A9
:101DF0002068086060680836401B10280ED96719F3
:101E0000780704D0EC2216A11FA0FEF755FA6068EF
:101E1000401B786038466560FFF762FD6168D8F85E
:101E200004004246401AC8F80400D8F80830984226
:101E300000D29060D8F80C0001430020C4E90001F2
:101E400001F00AFA700705D04FF4967204A10EA0B3
:101E5000FEF732FA3046BDE8F0810000C4000020F1
:101E60002E2E5C4672656552544F535C706F7274CF
:101E700061626C655C4D656D4D616E675C68656146
:101E8000705F342E630000004572726F723A2573E2
:101E90002C25640D0A0000000449086818B1086880
:101EA000426D521C42650868704700006C000020BB
:101EB00010B5031F4FF080741C601B1F21F001013F
:101EC0001960191F024B0B60143940380A6010BDAD
:101ED000811C00087CB500F025F9032200210120B7
:101EE00000F030FD124C03220021E060012000F0E0
:101EF00029FD206104F108010320CDE900014FF420
:101F0000807500232A460BA10D4801F049F8211DD8
:101F10000220CDE9000100232A460AA10C4801F065
:101F20003FF8206800F0CAFABDE87C4000F036B9FE
:101F30000000002055415254325F7461736B000001
:101F4000A50E000855415254315F7461736B000057
:101F5000C90D000830B5054687B0012144F20400E0
:101F6000FEF792FD4FF40070ADF8100003208DF8DD
:101F7000120018201E4C8DF8130004A92046FEF70D
:101F80008EFC2115ADF8101004208DF8130004A963
:101F90002046FEF784FC25208DF8140007208DF8DC
:101FA000150000248DF8164001208DF8170005A8B3
:101FB000FEF720FDADF80440ADF80640ADF808404E
:101FC000ADF80C400C200B4CADF80A0000956946AA
:101FD0002046FFF775F8012240F225512046FFF711
:101FE00057F801212046FFF723F807B030BD000065
:101FF0000008014000380140F0B50646012187B0D5
:102000004804FEF735FD01210420FEF73DFD0425BF
:10201000ADF8105003208DF8120018201D4F8DF8D8
:10202000130004A93846FEF73AFC0824ADF8104026
:102030008DF8135004A93846FEF731FC26208DF8A0
:1020400014008DF8154000248DF8164001208DF8FD
:10205000170005A8FEF7CEFCADF80440ADF8064029
:10206000ADF80840ADF80C400C200B4CADF80A0060
:10207000009669462046FFF723F8012240F22551D9
:102080002046FFF705F801212046FEF7D1FF07B0F3
:10209000F0BD00000008014000440040D0E90132DA
:1020A00001699A60D0E901235A604A68824201D1ED
:1020B00082684A60002202610868401E086070471A
:1020C00000F108014FF0FF32C0E90112C160016167
:1020D00000210160704700210161704730B50C6834
:1020E000621C02D000F1080202E0026904E01A4614
:1020F00053681D68A542FAD953684B6099608A609D
:10210000516008610168491C016030BD42684A6045
:1021100093688B6093685960916008610168491CFD
:1021200001607047502080F31188BFF34F8FBFF3D9
:102130006F8F09494868401C486001280AD1074848
:10214000006810F0FF0F05D04FF4BD7204A10FA07E
:10215000FEF7B2B870470000DC00002004ED00E09C
:102160002E2E5C4672656552544F535C706F7274CC
:1021700061626C655C525644535C41524D5F434D05
:10218000335C706F72742E63000000004572726FD2
:10219000723A25732C25640D0A00000010B5084C16
:1021A000606828B940F2811206A111A0FEF784F8F8
:1021B0006068401E606001D180F3118810BD00008E
:1021C000DC0000202E2E5C4672656552544F535C35
:1021D000706F727461626C655C525644535C41521C
:1021E0004D5F434D335C706F72742E6300000000CE
:1021F0004572726F723A25732C25640D0A00000037
:1022000070B500282AD0164DA0F108046068E9686E
:10221000084205D14FF4A07212A11CA0FEF74CF8A1
:10222000206828B140F241120EA118A0FEF744F830
:102230006068E968084211D02268002A0ED18843FC
:10224000606000F0D7FA60686968084468602046FA
:10225000FFF746FBBDE8704000F0FEBF70BD000018
:10226000C40000202E2E5C4672656552544F535CAC
:10227000706F727461626C655C4D656D4D616E6707
:102280005C686561705F342E630000004572726F98
:10229000723A25732C25640D0A00000010B50E4813
:1022A0004FF47A730D4A00686FF07F44B0FBF3F18E
:1022B0009160B4FBF1F1D160B0FBF0F12D24B4FBDF
:1022C000F1F11161B0FBF3F14FF0E020491E4161E3
:1022D0000721016110BD000014000020DC00002077
:1022E0002DE9F041374E0446F068844200D9044697
:1022F0004FF0E027386920F001003861B969B26811
:10230000601E02FB00153069854200D92D1A72B695
:10231000BFF34F8FBFF36F8FFEF756FF48B37D615A
:102320004FF00008C7F81880386940F001003861A4
:102330002046FEF79CFB24B1BFF34F8F30BFBFF3A5
:102340006F8F2046FEF792FB386920F0010139615A
:1023500062B6C00319D5B869B168281A081A32697B
:10236000401E904201D3884200D9481E7861641E05
:1023700015E0B8697861386940F001003861B068EB
:10238000401E786162B6BDE8F081B068B969444327
:10239000611AB1FBF0F4621C4243501A7861C7F82D
:1023A0001880FFF7BFFE386940F001003861204611
:1023B00000F0FAF9B068401E7861BDE8F041FFF71F
:1023C000EDBE0000DC00002010B5FDF74FFF104C03
:1023D00010280CD300F1E02090F8F0032178884217
:1023E00005D24FF42A720BA115A0FDF765FF18481E
:1023F0000068616900F4E060884207D9BDE81040D8
:102400004FF42E7203A10EA0FDF756BF10BD0000C1
:10241000DC0000202E2E5C4672656552544F535CE2
:10242000706F727461626C655C525644535C4152C9
:102430004D5F434D335C706F72742E63000000007B
:102440004572726F723A25732C25640D0A000000E4
:102450000CED00E010B5074B002253F832401CB1E0
:10246000521C082AF9D310BD43F8321003EBC20105
:10247000486010BDA057002070B515460E460446B2
:10248000FFF750FE94F944100020491C01D184F854
:10249000440094F94510491C01D184F84500FFF728
:1024A0007DFEA06B28B92A46314604F1240000F0D5
:1024B0009BF82046BDE87040FFF728BC70B5044685
:1024C000FFF730FE234D04B92C68201DFFF7E6FD11
:1024D00058B9E06A204A00EB800152F8211021B976
:1024E00001218140286988432861A06A18B104F15C
:1024F0001800FFF7D3FD686A401C686228688442B0
:1025000007D1211D1548FFF701FE6868401C68606F
:1025100007E0A868401EA8602046FFF7F4F8FFF720
:1025200055FBFFF73BFE6869002812D028688442FB
:102530000FD1286B28B140F2654209A10DA0FDF72B
:10254000BBFE10494FF080500860BFF34F8FBFF3C0
:102550006F8F70BD6C000020E05700209C5A002057
:102560002E2E5C4672656552544F535C7461736BDA
:10257000732E63004572726F723A25732C25640DB9
:102580000A00000004ED00E001490120C861704725
:102590006C00002070B50D46040005D140F60632EF
:1025A00007A10CA0FDF788FE0E48016820461831EF
:1025B000FFF794FD2846BDE870400121FEF768BF93
:1025C0002E2E5C4672656552544F535C7461736B7A
:1025D000732E63004572726F723A25732C25640D59
:1025E0000A0000006C00002070B514460E4605007D
:1025F00005D140F6313209A10DA0FDF75DFE10486E
:10260000016828461831FFF781FD0CB14FF0FF3605
:1026100021463046BDE87040FEF73ABF2E2E5C469C
:1026200072656552544F535C7461736B732E630013
:102630004572726F723A25732C25640D0A000000F2
:102640006C00002070B5040039D01D4DE06A296887
:10265000C96A884233D2A069002804DB2868C06AAE
:10266000C0F12000A061E06A164E00EB80006169B5
:1026700006EB800081421FD1201DFFF70FFD0121D5
:1026800050B9E06A00EB800256F8222022B92A698C
:1026900001FA00F082432A612868C06AE0622A6970
:1026A00081401143296100EB800006EB8000211D71
:1026B000BDE87040FFF72ABD2868C06AE06270BDBF
:1026C0006C000020E057002010B5040005D140F652
:1026D000C13205A109A0FDF7EFFD0C48016A216098
:1026E000C068606010BD00002E2E5C4672656552A9
:1026F000544F535C7461736B732E63004572726F39
:10270000723A25732C25640D0A0000006C0000202D
:102710001CB518480024CDE900402346822216A1AA
:10272000174800F03DFC012803D100F041FE0128CC
:102730000AD0401C1DD102B040F28472BDE81040A6
:1027400010A115A0FDF7B8BD502080F31188BFF38C
:102750004F8FBFF36F8F07484FF0FF312C388162E6
:1027600001214161C460FEF78FF8BDE81C4000F014
:1027700097B81CBD9800002049444C45000000005B
:102780009D1700082E2E5C4672656552544F535CAF
:102790007461736B732E63004572726F723A2573A6
:1027A0002C25640D0A00000070B5084D0446E86849
:1027B000A96A2044884205D940F6711204A109A0F3
:1027C000FDF77AFDE8682044E86070BD6C000020E9
:1027D0002E2E5C4672656552544F535C7461736B68
:1027E000732E63004572726F723A25732C25640D47
:1027F0000A0000000248016B491C01637047000099
:102800006C00002070B51A4C206B10B10120E06103
:1028100070BD0020E061174908684968A063626BD9
:10282000904204D92168821A8B6D1A448A656063CC
:102830002069114EB0FA80F0C0F11F0000EB800556
:1028400056F8250028B940F6F6220CA110A0FDF795
:1028500033FD06EB850000F10802416849684160DC
:10286000914201D149684160C868206070BD000094
:102870006C00002028000020E05700202E2E5C462F
:1028800072656552544F535C7461736B732E6300B1
:102890004572726F723A25732C25640D0A00000090
:1028A0001CB51A4908780190FF20087008788DF847
:1028B00000009DF80000164C00F05000207007202A
:1028C000606107E06069401E60619DF800004000A3
:1028D0008DF800009DF800000006F3D4207D000272
:1028E00000F4E0606061019808700A48016841F4F2
:1028F00070010160016841F070410160FFF7CEFC9A
:1029000000206060FDF77CFC00201CBD00E400E0BE
:10291000DC00002020ED00E010B5502080F311888D
:10292000BFF34F8FBFF36F8F00F07AFB18B10449EC
:102930004FF080500860002080F3118810BD000027
:1029400004ED00E02DE9F04117460E46050005D1E3
:102950004FF4C47210A115A0FDF7AEFCBEB105FB8B
:1029600006F05430FFF70EFA04000ED004F15400C4
:102970007EB12060C4E90F562046012100F0E0F846
:1029800084F8507000212046A164BDE8F081002049
:10299000E7E72460EEE700002E2E5C467265655284
:1029A000544F535C71756575652E63004572726F87
:1029B000723A25732C25640D0A0000002DE9FF4FA3
:1029C00083B09B468A4604004FF0000605D140F2D2
:1029D000DC4251A155A0FDF76FFCBAF1000F07D101
:1029E000206C28B140F2DD424BA150A0FDF764FC01
:1029F00000F002FB38B9059828B14FF49C6246A15B
:102A00004AA0FDF759FC4FF000094FF08057DFF85E
:102A10002C81FFF787FBA56B45B351462046E6683E
:102A2000FEF728FEBBF1000F13D0E660606A50B1DC
:102A300004F1240000F0C2FB28B1C8F80070BFF315
:102A40004F8FBFF36F8FFFF7A9FB012007B0BDE8E1
:102A5000F08F6D1EA563206810B9FFF71DFA606046
:102A600020690028EFD004F11000E3E7059808B1D1
:102A70001EB106E0FFF792FB27E06846FFF724FE51
:102A80000126FFF78BFBFFF7B5FEFFF74BFB94F931
:102A90004400401C01D184F8449094F94500401C46
:102AA00001D184F84590FFF779FB05A9684600F04D
:102AB00033FA002820460AD0FFF728F900F0CCFBB3
:102AC0002046FEF74FFF0028A3D00020BEE7FEF708
:102AD00049FFD8B1206830B9FFF724FB6068FFF7E1
:102AE000B1FDFFF75BFB04F124000599FFF752FDF0
:102AF0002046FFF70BF900F0AFFB002889D1C8F89A
:102B00000070BFF34F8FBFF36F8F82E72046FFF750
:102B1000FDF800F0A1FB7CE72E2E5C467265655245
:102B2000544F535C71756575652E63004572726F05
:102B3000723A25732C25640D0A00000004ED00E0B4
:102B400070B50D46040005D140F21B121CA121A056
:102B5000FDF7B2FBFFF7E6FAD4E90F20216802FB8C
:102B6000001161600021A1632168A1600A46D4E9D7
:102B70000F01401E00FB0121E16021464FF0FF30B4
:102B800001F8440F487004F110004DB1FFF798FAB6
:102B900004F12400FFF794FAFFF700FB012070BD59
:102BA00021690029F8D000F009FB0028F4D00D4974
:102BB0004FF080500860BFF34F8FBFF36F8FEBE78C
:102BC0002E2E5C4672656552544F535C7175657567
:102BD000652E63004572726F723A25732C25640D61
:102BE0000A00000004ED00E02DE9FF4F83B0994694
:102BF0008B4604004FF0000605D140F2D92252A1C5
:102C000056A0FDF759FBBBF1000F07D1206C28B18E
:102C100040F2DA224CA151A0FDF74EFBB9F1020FB0
:102C200008D1E06B012805D040F2DB2246A14BA081
:102C3000FDF742FB00F0E0F938B9059828B140F201
:102C4000DE2241A145A0FDF737FB4FF0000A4FF00F
:102C50008057DFF81881FFF765FAA06BE16B8842B7
:102C600006D3B9F1020F03D0059800B316B325E0DF
:102C70004A4659462046FEF710FDA16C21B149464F
:102C80002046FEF77DFE05E0616A19B104F12400DB
:102C900000F094FA28B1C8F80070BFF34F8FBFF36B
:102CA0006F8FFFF77BFA012007B0BDE8F08FFFF7C9
:102CB00075FA21E06846FFF707FD0126FFF76EFA77
:102CC000FFF798FDFFF72EFA94F94400401C01D15C
:102CD00084F844A094F94500401C01D184F845A033
:102CE000FFF75CFA05A9684600F016F930B12046F6
:102CF000FFF70CF800F0B0FA0020D5E7FFF712FA62
:102D0000A06BE16B884201D1012500E00025FFF7AF
:102D100045FA95B104F110000599FFF73BFC2046F8
:102D2000FEF7F4FF00F098FA002894D1C8F800707C
:102D3000BFF34F8FBFF36F8F8DE72046FEF7E6FF9F
:102D400000F08AFA87E700002E2E5C467265655215
:102D5000544F535C71756575652E63004572726FD3
:102D6000723A25732C25640D0A00000004ED00E082
:102D70002DE9F047984615468946040005D140F2F2
:102D80009F322AA12EA0FDF797FAB9F1000F07D1C3
:102D9000206C28B14FF4687224A129A0FDF78CFAA9
:102DA000B8F1020F08D1E06B012805D040F2A13242
:102DB0001EA123A0FDF780FAFFF706FB5020EFF3DA
:102DC000118780F31188BFF34F8FBFF36F8FA06B14
:102DD000E16B884207D3B8F1020F04D0002087F3DB
:102DE0001188BDE8F08794F945604246494620467F
:102DF000FEF753FC701C04D0761C84F8456001205B
:102E0000EDE7A06C012620B141462046FEF7B8FD53
:102E100006E0606A0028F2D004F1240000F0CEF948
:102E20000028ECD0002DEAD02E60E8E72E2E5C467C
:102E300072656552544F535C71756575652E6300FC
:102E40004572726F723A25732C25640D0A000000DA
:102E50002DE9F0410D46040005D140F23C4225A188
:102E600029A0FDF729FA206C28B14FF4886221A12E
:102E700025A0FDF721FA206838B9606828B140F232
:102E800045421CA120A0FDF717FAFFF79DFA50203C
:102E9000EFF3118680F31188BFF34F8FBFF36F8F6D
:102EA000A16BE06B88421FD994F94500491CA163CE
:102EB000411C04D0401C84F84500012015E0A06CA2
:102EC000012720B100212046FEF75AFD06E0606A86
:102ED0000028F2D004F1240000F070F90028ECD0B2
:102EE000002DEAD02F60E8E7002086F31188BDE8C6
:102EF000F08100002E2E5C4672656552544F535C83
:102F000071756575652E63004572726F723A25732F
:102F10002C25640D0A00000070B50D46040005D193
:102F200040F6CB3214A119A0FDF7C6F92DB940F631
:102F3000CC3211A115A0FDF7BFF9FFF7F3F8174A3E
:102F4000D06829684B1C0FD02368126A934202D0C4
:102F5000626882420AD96268801A884206D2081AD8
:102F600028602046FFF7B0FB002400E00124FFF7B3
:102F700015F9204670BD00002E2E5C467265655224
:102F8000544F535C7461736B732E63004572726FA0
:102F9000723A25732C25640D0A0000006C00002095
:102FA0002DE9FF5F8346DDE90E87994616468A467E
:102FB0009000FEF7E7FE05001AD06420FEF7E2FE5F
:102FC000040012D025630021CDE90241CDE900873C
:102FD0004B46324651465846FEF722FC2046FEF745
:102FE0008FFA012004B0BDE8F09F2846FFF708F9EA
:102FF0004FF0FF30F6E700000548416919B1006B5A
:1030000018B100207047012070470220704700006F
:103010006C0000200148C068704700006C00002070
:103020002DE9F0412D4F0026386B40B1B869401CA6
:10303000B861F86900B101263046BDE8F081FD684D
:103040006D1CFD6011D1F86B006828B140F6D912F3
:1030500023A128A0FDF730F9F86B396CF9633864C7
:10306000386A401C3862FEF7B1FDB86ADFF8948018
:10307000854209D3F86B006880B1F86BC068C468FA
:10308000606885420DD2B8623868C06A00EB800182
:1030900058F821000128CCD90126CAE74FF0FF30AB
:1030A000F1E7201DFEF7FAFFA06A18B104F118003D
:1030B000FEF7F4FFE06A01213A698140114339616A
:1030C00000EB800108EB8100211DFFF71FF8E06A8B
:1030D0003968C96A8842CDD30126CBE76C0000204D
:1030E0002E2E5C4672656552544F535C7461736B4F
:1030F000732E63004572726F723A25732C25640D2E
:103100000A000000E057002070B504004FF00006F0
:103110003CD01F4D2868844205D040F6C7621DA1EF
:1031200021A0FDF7C9F8606D28B940F6C96219A160
:103130001DA0FDF7C1F8606D401E6065226DE16A5B
:10314000914223D010BB201DFEF7A8FF1A4901228F
:1031500050B9E06A00EB800351F8233023B92B69A2
:1031600002FA00F083432B61206DE062C0F1200081
:10317000A061E06A2B6982401A432A6100EB80005B
:1031800001EB8000211DFEF7C1FF0126304670BD16
:103190006C0000202E2E5C4672656552544F535CC5
:1031A0007461736B732E63004572726F723A25738C
:1031B0002C25640D0A000000E05700202DE9F041A5
:1031C000C068C4682CB940F6613217A11BA0FDF796
:1031D00073F804F118000746FEF760FF1B4D286BDB
:1031E000012658B139461A48FEF790FFE06A29686F
:1031F000C96A884212D90124EE6110E0201DFEF751
:103200004DFFE06A2A6906FA00F11143296111496C
:1032100000EB800001EB8000211DE5E70024FEF7B4
:10322000D5FC2046BDE8F0812E2E5C4672656552C5
:10323000544F535C7461736B732E63004572726FED
:10324000723A25732C25640D0A0000006C000020E2
:10325000885A0020E05700202DE9F0472B4D00242C
:103260002746286B28B94FF4FD6229A12DA0FDF750
:1032700023F8FEF757FF286B401E2863286BE8BB36
:10328000A8682C490126C8B3A1F52A798846D8F840
:103290000010E9B1D8F80C00C46804F11800FEF77A
:1032A000FDFE201DFEF7FAFEE06A2A6906FA00F12B
:1032B0001143296100EB800109EB8100211DFEF71C
:1032C00025FFE06A2968C96A8842E0D3EE61DEE73B
:1032D0000CB1FEF77BFCAC693CB1FFF7A1FE00B17D
:1032E000EE61641EF9D10020A861E86930B112498D
:1032F000012738070860BFF34F8F00E001E0BFF3FC
:103300006F8FFEF74BFF3846BDE8F0876C0000205A
:103310002E2E5C4672656552544F535C7461736B1C
:10332000732E63004572726F723A25732C25640DFB
:103330000A000000885A002004ED00E02DE9F04763
:103340000746994616460D462C20DDF820A0FEF7CC
:1033500019FD040014D0B8464F46D1462DB94FF49C
:10336000C67209A10EA0FCF7A7FFFEF731F904F120
:103370001801C4F8008081E8E002201DFEF7ABFED2
:103380002046BDE8F08700002E2E5C46726565522F
:10339000544F535C74696D6572732E6300000000B6
:1033A0004572726F723A25732C25640D0A00000075
:1033B0001CB50024FEF70CF90C48006868B10B49F5
:1033C0001F20091DCDE9000100234FF4827208A1DE
:1033D0000948FFF7E5FD040005D140F2331207A1CB
:1033E0000CA0FCF769FF20461CBD0000B0000020C7
:1033F000546D722053766300E51C00082E2E5C4647
:1034000072656552544F535C74696D6572732E63B7
:10341000000000004572726F723A25732C25640D0E
:103420000A0000002DE9FF47DDF830A099469046DC
:103430000D4606004FF0000705D14FF4D37212A1DC
:1034400017A0FCF739FF1A4C206880B1CDE900586D
:103450000296062D11DAFFF7CFFD02284FF0000388
:1034600009D0002269462068FFF7BEFB074604B07A
:103470003846BDE8F0875246F4E700234A466946DD
:10348000FFF776FCF2E700002E2E5C46726565526F
:10349000544F535C74696D6572732E6300000000B5
:1034A0004572726F723A25732C25640D0A00000074
:1034B000B000002080020000007800002000000022
:1034C000200000000050000000000F00EC34000855
:1034D00000000020F40000006C010008E035000846
:1034E000F40000205CB0000088010008000000002B
:1034F00000000000000000000000000000000000CC
:1035000000A24A04000000000000000001020304C1
:10351000060708090000000000000000000000008D
:103520000000000000000000020406080000000087
:10353000010203040102030406070809CD12000872
:1035400095130008A002002000000068A05200208F
:1035500000000F68000000000000000000000000F4
:10356000000000000000000000000000000000005B
:10357000000000000000000000000000000000004B
:10358000000000000000000000000000000000003B
:10359000000000000000000000000000000000002B
:1035A000000000000000000000000000000000001B
:1035B000000000000000000000000000000000000B
:1035C000000000000000000000000000AAAAAAAA53
:1035D00000000000000000000000000000000000EB
:040000050800027578
:00000001FF
